{"contracts/AdvancedDAO.sol":{"AdvancedDAO":{"abi":[{"inputs":[{"internalType":"contract IERC20","name":"_governanceToken","type":"address"},{"internalType":"uint256","name":"_votingPeriod","type":"uint256"},{"internalType":"uint256","name":"_quorumPercentage","type":"uint256"}],"stateMutability":"nonpayable","type":"constructor"},{"anonymous":false,"inputs":[{"indexed":false,"internalType":"uint256","name":"id","type":"uint256"},{"indexed":false,"internalType":"address","name":"proposer","type":"address"},{"indexed":false,"internalType":"string","name":"description","type":"string"}],"name":"ProposalCreated","type":"event"},{"anonymous":false,"inputs":[{"indexed":false,"internalType":"uint256","name":"proposalId","type":"uint256"}],"name":"ProposalExecuted","type":"event"},{"anonymous":false,"inputs":[{"indexed":false,"internalType":"uint256","name":"proposalId","type":"uint256"},{"indexed":false,"internalType":"address","name":"voter","type":"address"},{"indexed":false,"internalType":"bool","name":"support","type":"bool"}],"name":"Voted","type":"event"},{"inputs":[{"internalType":"string","name":"_description","type":"string"}],"name":"createProposal","outputs":[],"stateMutability":"nonpayable","type":"function"},{"inputs":[{"internalType":"uint256","name":"_proposalId","type":"uint256"}],"name":"executeProposal","outputs":[],"stateMutability":"nonpayable","type":"function"},{"inputs":[],"name":"governanceToken","outputs":[{"internalType":"contract IERC20","name":"","type":"address"}],"stateMutability":"view","type":"function"},{"inputs":[],"name":"owner","outputs":[{"internalType":"address","name":"","type":"address"}],"stateMutability":"view","type":"function"},{"inputs":[],"name":"proposalCount","outputs":[{"internalType":"uint256","name":"","type":"uint256"}],"stateMutability":"view","type":"function"},{"inputs":[{"internalType":"uint256","name":"","type":"uint256"}],"name":"proposals","outputs":[{"internalType":"uint256","name":"id","type":"uint256"},{"internalType":"address","name":"proposer","type":"address"},{"internalType":"string","name":"description","type":"string"},{"internalType":"uint256","name":"voteCount","type":"uint256"},{"internalType":"uint256","name":"endTime","type":"uint256"},{"internalType":"bool","name":"executed","type":"bool"}],"stateMutability":"view","type":"function"},{"inputs":[],"name":"quorumPercentage","outputs":[{"internalType":"uint256","name":"","type":"uint256"}],"stateMutability":"view","type":"function"},{"inputs":[{"internalType":"uint256","name":"_quorumPercentage","type":"uint256"}],"name":"updateQuorumPercentage","outputs":[],"stateMutability":"nonpayable","type":"function"},{"inputs":[{"internalType":"uint256","name":"_votingPeriod","type":"uint256"}],"name":"updateVotingPeriod","outputs":[],"stateMutability":"nonpayable","type":"function"},{"inputs":[{"internalType":"uint256","name":"_proposalId","type":"uint256"},{"internalType":"bool","name":"_support","type":"bool"}],"name":"vote","outputs":[],"stateMutability":"nonpayable","type":"function"},{"inputs":[],"name":"votingPeriod","outputs":[{"internalType":"uint256","name":"","type":"uint256"}],"stateMutability":"view","type":"function"}],"evm":{"bytecode":{"linkReferences":{},"object":"60806040523480156200001157600080fd5b5060405162001c9c38038062001c9c8339818101604052810190620000379190620001cf565b60648111156200007e576040517f08c379a00000000000000000000000000000000000000000000000000000000081526004016200007590620002b2565b60405180910390fd5b826000806101000a81548173ffffffffffffffffffffffffffffffffffffffff021916908373ffffffffffffffffffffffffffffffffffffffff160217905550816002819055508060038190555033600460006101000a81548173ffffffffffffffffffffffffffffffffffffffff021916908373ffffffffffffffffffffffffffffffffffffffff160217905550505050620002d4565b600080fd5b600073ffffffffffffffffffffffffffffffffffffffff82169050919050565b600062000148826200011b565b9050919050565b60006200015c826200013b565b9050919050565b6200016e816200014f565b81146200017a57600080fd5b50565b6000815190506200018e8162000163565b92915050565b6000819050919050565b620001a98162000194565b8114620001b557600080fd5b50565b600081519050620001c9816200019e565b92915050565b600080600060608486031215620001eb57620001ea62000116565b5b6000620001fb868287016200017d565b93505060206200020e86828701620001b8565b92505060406200022186828701620001b8565b9150509250925092565b600082825260208201905092915050565b7f51756f72756d2070657263656e746167652063616e6e6f74206578636565642060008201527f3130300000000000000000000000000000000000000000000000000000000000602082015250565b60006200029a6023836200022b565b9150620002a7826200023c565b604082019050919050565b60006020820190508181036000830152620002cd816200028b565b9050919050565b6119b880620002e46000396000f3fe608060405234801561001057600080fd5b50600436106100a95760003560e01c80638da5cb5b116100715780638da5cb5b14610157578063c9d27afe14610175578063da35c66414610191578063ef00ef43146101af578063f0f9e6b7146101cb578063f96dae0a146101e7576100a9565b8063013cf08b146100ae57806302a251a3146100e35780630d61b5191461010157806349c2a1a61461011d5780634fa76ec914610139575b600080fd5b6100c860048036038101906100c39190610cae565b610205565b6040516100da96959493929190610dd6565b60405180910390f35b6100eb6102f6565b6040516100f89190610e3e565b60405180910390f35b61011b60048036038101906101169190610cae565b6102fc565b005b61013760048036038101906101329190610f8e565b61058f565b005b610141610771565b60405161014e9190610e3e565b60405180910390f35b61015f610777565b60405161016c9190610fd7565b60405180910390f35b61018f600480360381019061018a919061101e565b61079d565b005b610199610ac2565b6040516101a69190610e3e565b60405180910390f35b6101c960048036038101906101c49190610cae565b610ac8565b005b6101e560048036038101906101e09190610cae565b610b62565b005b6101ef610c40565b6040516101fc91906110bd565b60405180910390f35b60056020528060005260406000206000915090508060000154908060010160009054906101000a900473ffffffffffffffffffffffffffffffffffffffff169080600201805461025490611107565b80601f016020809104026020016040519081016040528092919081815260200182805461028090611107565b80156102cd5780601f106102a2576101008083540402835291602001916102cd565b820191906000526020600020905b8154815290600101906020018083116102b057829003601f168201915b5050505050908060030154908060040154908060050160009054906101000a900460ff16905086565b60025481565b600460009054906101000a900473ffffffffffffffffffffffffffffffffffffffff1673ffffffffffffffffffffffffffffffffffffffff163373ffffffffffffffffffffffffffffffffffffffff161461038c576040517f08c379a0000000000000000000000000000000000000000000000000000000008152600401610383906111aa565b60405180910390fd5b600060056000838152602001908152602001600020905080600401544210156103ea576040517f08c379a00000000000000000000000000000000000000000000000000000000081526004016103e190611216565b60405180910390fd5b8060050160009054906101000a900460ff161561043c576040517f08c379a000000000000000000000000000000000000000000000000000000000815260040161043390611282565b60405180910390fd5b60008060009054906101000a900473ffffffffffffffffffffffffffffffffffffffff1673ffffffffffffffffffffffffffffffffffffffff166318160ddd6040518163ffffffff1660e01b8152600401602060405180830381865afa1580156104aa573d6000803e3d6000fd5b505050506040513d601f19601f820116820180604052508101906104ce91906112b7565b905060006064600354836104e29190611313565b6104ec9190611384565b90508083600301541015610535576040517f08c379a000000000000000000000000000000000000000000000000000000000815260040161052c90611401565b60405180910390fd5b60018360050160006101000a81548160ff0219169083151502179055507f712ae1383f79ac853f8d882153778e0260ef8f03b504e2866e0593e04d2b291f846040516105819190610e3e565b60405180910390a150505050565b60008060009054906101000a900473ffffffffffffffffffffffffffffffffffffffff1673ffffffffffffffffffffffffffffffffffffffff166370a08231336040518263ffffffff1660e01b81526004016105eb9190610fd7565b602060405180830381865afa158015610608573d6000803e3d6000fd5b505050506040513d601f19601f8201168201806040525081019061062c91906112b7565b1161066c576040517f08c379a000000000000000000000000000000000000000000000000000000000815260040161066390611493565b60405180910390fd5b6001600081548092919061067f906114b3565b9190505550600060056000600154815260200190815260200160002090506001548160000181905550338160010160006101000a81548173ffffffffffffffffffffffffffffffffffffffff021916908373ffffffffffffffffffffffffffffffffffffffff160217905550818160020190816106fc919061169d565b506002544261070b919061176f565b816004018190555060008160050160006101000a81548160ff0219169083151502179055507f7585f467599d0f008985f231af99293be388626ac16ca59505c2f8f88969cd636001543384604051610765939291906117a3565b60405180910390a15050565b60035481565b600460009054906101000a900473ffffffffffffffffffffffffffffffffffffffff1681565b60008060009054906101000a900473ffffffffffffffffffffffffffffffffffffffff1673ffffffffffffffffffffffffffffffffffffffff166370a08231336040518263ffffffff1660e01b81526004016107f99190610fd7565b602060405180830381865afa158015610816573d6000803e3d6000fd5b505050506040513d601f19601f8201168201806040525081019061083a91906112b7565b1161087a576040517f08c379a000000000000000000000000000000000000000000000000000000000815260040161087190611493565b60405180910390fd5b6000600560008481526020019081526020016000209050806004015442106108d7576040517f08c379a00000000000000000000000000000000000000000000000000000000081526004016108ce9061182d565b60405180910390fd5b8060060160003373ffffffffffffffffffffffffffffffffffffffff1673ffffffffffffffffffffffffffffffffffffffff16815260200190815260200160002060009054906101000a900460ff1615610966576040517f08c379a000000000000000000000000000000000000000000000000000000000815260040161095d90611899565b60405180910390fd5b60008060009054906101000a900473ffffffffffffffffffffffffffffffffffffffff1673ffffffffffffffffffffffffffffffffffffffff166370a08231336040518263ffffffff1660e01b81526004016109c29190610fd7565b602060405180830381865afa1580156109df573d6000803e3d6000fd5b505050506040513d601f19601f82011682018060405250810190610a0391906112b7565b90508215610a275780826003016000828254610a1f919061176f565b925050819055505b60018260060160003373ffffffffffffffffffffffffffffffffffffffff1673ffffffffffffffffffffffffffffffffffffffff16815260200190815260200160002060006101000a81548160ff0219169083151502179055507ff2913dbe661ee2acc4a046d8fbcdc792373bda34c41c6086484b5345e5785e5f843385604051610ab4939291906118b9565b60405180910390a150505050565b60015481565b600460009054906101000a900473ffffffffffffffffffffffffffffffffffffffff1673ffffffffffffffffffffffffffffffffffffffff163373ffffffffffffffffffffffffffffffffffffffff1614610b58576040517f08c379a0000000000000000000000000000000000000000000000000000000008152600401610b4f906111aa565b60405180910390fd5b8060028190555050565b600460009054906101000a900473ffffffffffffffffffffffffffffffffffffffff1673ffffffffffffffffffffffffffffffffffffffff163373ffffffffffffffffffffffffffffffffffffffff1614610bf2576040517f08c379a0000000000000000000000000000000000000000000000000000000008152600401610be9906111aa565b60405180910390fd5b6064811115610c36576040517f08c379a0000000000000000000000000000000000000000000000000000000008152600401610c2d90611962565b60405180910390fd5b8060038190555050565b60008054906101000a900473ffffffffffffffffffffffffffffffffffffffff1681565b6000604051905090565b600080fd5b600080fd5b6000819050919050565b610c8b81610c78565b8114610c9657600080fd5b50565b600081359050610ca881610c82565b92915050565b600060208284031215610cc457610cc3610c6e565b5b6000610cd284828501610c99565b91505092915050565b610ce481610c78565b82525050565b600073ffffffffffffffffffffffffffffffffffffffff82169050919050565b6000610d1582610cea565b9050919050565b610d2581610d0a565b82525050565b600081519050919050565b600082825260208201905092915050565b60005b83811015610d65578082015181840152602081019050610d4a565b60008484015250505050565b6000601f19601f8301169050919050565b6000610d8d82610d2b565b610d978185610d36565b9350610da7818560208601610d47565b610db081610d71565b840191505092915050565b60008115159050919050565b610dd081610dbb565b82525050565b600060c082019050610deb6000830189610cdb565b610df86020830188610d1c565b8181036040830152610e0a8187610d82565b9050610e196060830186610cdb565b610e266080830185610cdb565b610e3360a0830184610dc7565b979650505050505050565b6000602082019050610e536000830184610cdb565b92915050565b600080fd5b600080fd5b7f4e487b7100000000000000000000000000000000000000000000000000000000600052604160045260246000fd5b610e9b82610d71565b810181811067ffffffffffffffff82111715610eba57610eb9610e63565b5b80604052505050565b6000610ecd610c64565b9050610ed98282610e92565b919050565b600067ffffffffffffffff821115610ef957610ef8610e63565b5b610f0282610d71565b9050602081019050919050565b82818337600083830152505050565b6000610f31610f2c84610ede565b610ec3565b905082815260208101848484011115610f4d57610f4c610e5e565b5b610f58848285610f0f565b509392505050565b600082601f830112610f7557610f74610e59565b5b8135610f85848260208601610f1e565b91505092915050565b600060208284031215610fa457610fa3610c6e565b5b600082013567ffffffffffffffff811115610fc257610fc1610c73565b5b610fce84828501610f60565b91505092915050565b6000602082019050610fec6000830184610d1c565b92915050565b610ffb81610dbb565b811461100657600080fd5b50565b60008135905061101881610ff2565b92915050565b6000806040838503121561103557611034610c6e565b5b600061104385828601610c99565b925050602061105485828601611009565b9150509250929050565b6000819050919050565b600061108361107e61107984610cea565b61105e565b610cea565b9050919050565b600061109582611068565b9050919050565b60006110a78261108a565b9050919050565b6110b78161109c565b82525050565b60006020820190506110d260008301846110ae565b92915050565b7f4e487b7100000000000000000000000000000000000000000000000000000000600052602260045260246000fd5b6000600282049050600182168061111f57607f821691505b602082108103611132576111316110d8565b5b50919050565b7f4f6e6c79206f776e65722063616e20706572666f726d2074686973206163746960008201527f6f6e000000000000000000000000000000000000000000000000000000000000602082015250565b6000611194602283610d36565b915061119f82611138565b604082019050919050565b600060208201905081810360008301526111c381611187565b9050919050565b7f566f74696e6720706572696f6420686173206e6f7420656e6465640000000000600082015250565b6000611200601b83610d36565b915061120b826111ca565b602082019050919050565b6000602082019050818103600083015261122f816111f3565b9050919050565b7f50726f706f73616c20616c726561647920657865637574656400000000000000600082015250565b600061126c601983610d36565b915061127782611236565b602082019050919050565b6000602082019050818103600083015261129b8161125f565b9050919050565b6000815190506112b181610c82565b92915050565b6000602082840312156112cd576112cc610c6e565b5b60006112db848285016112a2565b91505092915050565b7f4e487b7100000000000000000000000000000000000000000000000000000000600052601160045260246000fd5b600061131e82610c78565b915061132983610c78565b925082820261133781610c78565b9150828204841483151761134e5761134d6112e4565b5b5092915050565b7f4e487b7100000000000000000000000000000000000000000000000000000000600052601260045260246000fd5b600061138f82610c78565b915061139a83610c78565b9250826113aa576113a9611355565b5b828204905092915050565b7f51756f72756d206e6f7420726561636865640000000000000000000000000000600082015250565b60006113eb601283610d36565b91506113f6826113b5565b602082019050919050565b6000602082019050818103600083015261141a816113de565b9050919050565b7f4f6e6c7920746f6b656e20686f6c646572732063616e20706572666f726d207460008201527f68697320616374696f6e00000000000000000000000000000000000000000000602082015250565b600061147d602a83610d36565b915061148882611421565b604082019050919050565b600060208201905081810360008301526114ac81611470565b9050919050565b60006114be82610c78565b91507fffffffffffffffffffffffffffffffffffffffffffffffffffffffffffffffff82036114f0576114ef6112e4565b5b600182019050919050565b60008190508160005260206000209050919050565b60006020601f8301049050919050565b600082821b905092915050565b60006008830261155d7fffffffffffffffffffffffffffffffffffffffffffffffffffffffffffffffff82611520565b6115678683611520565b95508019841693508086168417925050509392505050565b600061159a61159561159084610c78565b61105e565b610c78565b9050919050565b6000819050919050565b6115b48361157f565b6115c86115c0826115a1565b84845461152d565b825550505050565b600090565b6115dd6115d0565b6115e88184846115ab565b505050565b5b8181101561160c576116016000826115d5565b6001810190506115ee565b5050565b601f82111561165157611622816114fb565b61162b84611510565b8101602085101561163a578190505b61164e61164685611510565b8301826115ed565b50505b505050565b600082821c905092915050565b600061167460001984600802611656565b1980831691505092915050565b600061168d8383611663565b9150826002028217905092915050565b6116a682610d2b565b67ffffffffffffffff8111156116bf576116be610e63565b5b6116c98254611107565b6116d4828285611610565b600060209050601f83116001811461170757600084156116f5578287015190505b6116ff8582611681565b865550611767565b601f198416611715866114fb565b60005b8281101561173d57848901518255600182019150602085019450602081019050611718565b8683101561175a5784890151611756601f891682611663565b8355505b6001600288020188555050505b505050505050565b600061177a82610c78565b915061178583610c78565b925082820190508082111561179d5761179c6112e4565b5b92915050565b60006060820190506117b86000830186610cdb565b6117c56020830185610d1c565b81810360408301526117d78184610d82565b9050949350505050565b7f566f74696e6720706572696f642068617320656e646564000000000000000000600082015250565b6000611817601783610d36565b9150611822826117e1565b602082019050919050565b600060208201905081810360008301526118468161180a565b9050919050565b7f596f75206861766520616c726561647920766f74656400000000000000000000600082015250565b6000611883601683610d36565b915061188e8261184d565b602082019050919050565b600060208201905081810360008301526118b281611876565b9050919050565b60006060820190506118ce6000830186610cdb565b6118db6020830185610d1c565b6118e86040830184610dc7565b949350505050565b7f51756f72756d2070657263656e746167652063616e6e6f74206578636565642060008201527f3130300000000000000000000000000000000000000000000000000000000000602082015250565b600061194c602383610d36565b9150611957826118f0565b604082019050919050565b6000602082019050818103600083015261197b8161193f565b905091905056fea2646970667358221220353c2f9d459adccea088361b003535c91d654d0916aad8e969888ea401e5b67c64736f6c63430008180033","opcodes":"PUSH1 0x80 PUSH1 0x40 MSTORE CALLVALUE DUP1 ISZERO PUSH3 0x11 JUMPI PUSH1 0x0 DUP1 REVERT JUMPDEST POP PUSH1 0x40 MLOAD PUSH3 0x1C9C CODESIZE SUB DUP1 PUSH3 0x1C9C DUP4 CODECOPY DUP2 DUP2 ADD PUSH1 0x40 MSTORE DUP2 ADD SWAP1 PUSH3 0x37 SWAP2 SWAP1 PUSH3 0x1CF JUMP JUMPDEST PUSH1 0x64 DUP2 GT ISZERO PUSH3 0x7E JUMPI PUSH1 0x40 MLOAD PUSH32 0x8C379A000000000000000000000000000000000000000000000000000000000 DUP2 MSTORE PUSH1 0x4 ADD PUSH3 0x75 SWAP1 PUSH3 0x2B2 JUMP JUMPDEST PUSH1 0x40 MLOAD DUP1 SWAP2 SUB SWAP1 REVERT JUMPDEST DUP3 PUSH1 0x0 DUP1 PUSH2 0x100 EXP DUP2 SLOAD DUP2 PUSH20 0xFFFFFFFFFFFFFFFFFFFFFFFFFFFFFFFFFFFFFFFF MUL NOT AND SWAP1 DUP4 PUSH20 0xFFFFFFFFFFFFFFFFFFFFFFFFFFFFFFFFFFFFFFFF AND MUL OR SWAP1 SSTORE POP DUP2 PUSH1 0x2 DUP2 SWAP1 SSTORE POP DUP1 PUSH1 0x3 DUP2 SWAP1 SSTORE POP CALLER PUSH1 0x4 PUSH1 0x0 PUSH2 0x100 EXP DUP2 SLOAD DUP2 PUSH20 0xFFFFFFFFFFFFFFFFFFFFFFFFFFFFFFFFFFFFFFFF MUL NOT AND SWAP1 DUP4 PUSH20 0xFFFFFFFFFFFFFFFFFFFFFFFFFFFFFFFFFFFFFFFF AND MUL OR SWAP1 SSTORE POP POP POP POP PUSH3 0x2D4 JUMP JUMPDEST PUSH1 0x0 DUP1 REVERT JUMPDEST PUSH1 0x0 PUSH20 0xFFFFFFFFFFFFFFFFFFFFFFFFFFFFFFFFFFFFFFFF DUP3 AND SWAP1 POP SWAP2 SWAP1 POP JUMP JUMPDEST PUSH1 0x0 PUSH3 0x148 DUP3 PUSH3 0x11B JUMP JUMPDEST SWAP1 POP SWAP2 SWAP1 POP JUMP JUMPDEST PUSH1 0x0 PUSH3 0x15C DUP3 PUSH3 0x13B JUMP JUMPDEST SWAP1 POP SWAP2 SWAP1 POP JUMP JUMPDEST PUSH3 0x16E DUP2 PUSH3 0x14F JUMP JUMPDEST DUP2 EQ PUSH3 0x17A JUMPI PUSH1 0x0 DUP1 REVERT JUMPDEST POP JUMP JUMPDEST PUSH1 0x0 DUP2 MLOAD SWAP1 POP PUSH3 0x18E DUP2 PUSH3 0x163 JUMP JUMPDEST SWAP3 SWAP2 POP POP JUMP JUMPDEST PUSH1 0x0 DUP2 SWAP1 POP SWAP2 SWAP1 POP JUMP JUMPDEST PUSH3 0x1A9 DUP2 PUSH3 0x194 JUMP JUMPDEST DUP2 EQ PUSH3 0x1B5 JUMPI PUSH1 0x0 DUP1 REVERT JUMPDEST POP JUMP JUMPDEST PUSH1 0x0 DUP2 MLOAD SWAP1 POP PUSH3 0x1C9 DUP2 PUSH3 0x19E JUMP JUMPDEST SWAP3 SWAP2 POP POP JUMP JUMPDEST PUSH1 0x0 DUP1 PUSH1 0x0 PUSH1 0x60 DUP5 DUP7 SUB SLT ISZERO PUSH3 0x1EB JUMPI PUSH3 0x1EA PUSH3 0x116 JUMP JUMPDEST JUMPDEST PUSH1 0x0 PUSH3 0x1FB DUP7 DUP3 DUP8 ADD PUSH3 0x17D JUMP JUMPDEST SWAP4 POP POP PUSH1 0x20 PUSH3 0x20E DUP7 DUP3 DUP8 ADD PUSH3 0x1B8 JUMP JUMPDEST SWAP3 POP POP PUSH1 0x40 PUSH3 0x221 DUP7 DUP3 DUP8 ADD PUSH3 0x1B8 JUMP JUMPDEST SWAP2 POP POP SWAP3 POP SWAP3 POP SWAP3 JUMP JUMPDEST PUSH1 0x0 DUP3 DUP3 MSTORE PUSH1 0x20 DUP3 ADD SWAP1 POP SWAP3 SWAP2 POP POP JUMP JUMPDEST PUSH32 0x51756F72756D2070657263656E746167652063616E6E6F742065786365656420 PUSH1 0x0 DUP3 ADD MSTORE PUSH32 0x3130300000000000000000000000000000000000000000000000000000000000 PUSH1 0x20 DUP3 ADD MSTORE POP JUMP JUMPDEST PUSH1 0x0 PUSH3 0x29A PUSH1 0x23 DUP4 PUSH3 0x22B JUMP JUMPDEST SWAP2 POP PUSH3 0x2A7 DUP3 PUSH3 0x23C JUMP JUMPDEST PUSH1 0x40 DUP3 ADD SWAP1 POP SWAP2 SWAP1 POP JUMP JUMPDEST PUSH1 0x0 PUSH1 0x20 DUP3 ADD SWAP1 POP DUP2 DUP2 SUB PUSH1 0x0 DUP4 ADD MSTORE PUSH3 0x2CD DUP2 PUSH3 0x28B JUMP JUMPDEST SWAP1 POP SWAP2 SWAP1 POP JUMP JUMPDEST PUSH2 0x19B8 DUP1 PUSH3 0x2E4 PUSH1 0x0 CODECOPY PUSH1 0x0 RETURN INVALID PUSH1 0x80 PUSH1 0x40 MSTORE CALLVALUE DUP1 ISZERO PUSH2 0x10 JUMPI PUSH1 0x0 DUP1 REVERT JUMPDEST POP PUSH1 0x4 CALLDATASIZE LT PUSH2 0xA9 JUMPI PUSH1 0x0 CALLDATALOAD PUSH1 0xE0 SHR DUP1 PUSH4 0x8DA5CB5B GT PUSH2 0x71 JUMPI DUP1 PUSH4 0x8DA5CB5B EQ PUSH2 0x157 JUMPI DUP1 PUSH4 0xC9D27AFE EQ PUSH2 0x175 JUMPI DUP1 PUSH4 0xDA35C664 EQ PUSH2 0x191 JUMPI DUP1 PUSH4 0xEF00EF43 EQ PUSH2 0x1AF JUMPI DUP1 PUSH4 0xF0F9E6B7 EQ PUSH2 0x1CB JUMPI DUP1 PUSH4 0xF96DAE0A EQ PUSH2 0x1E7 JUMPI PUSH2 0xA9 JUMP JUMPDEST DUP1 PUSH4 0x13CF08B EQ PUSH2 0xAE JUMPI DUP1 PUSH4 0x2A251A3 EQ PUSH2 0xE3 JUMPI DUP1 PUSH4 0xD61B519 EQ PUSH2 0x101 JUMPI DUP1 PUSH4 0x49C2A1A6 EQ PUSH2 0x11D JUMPI DUP1 PUSH4 0x4FA76EC9 EQ PUSH2 0x139 JUMPI JUMPDEST PUSH1 0x0 DUP1 REVERT JUMPDEST PUSH2 0xC8 PUSH1 0x4 DUP1 CALLDATASIZE SUB DUP2 ADD SWAP1 PUSH2 0xC3 SWAP2 SWAP1 PUSH2 0xCAE JUMP JUMPDEST PUSH2 0x205 JUMP JUMPDEST PUSH1 0x40 MLOAD PUSH2 0xDA SWAP7 SWAP6 SWAP5 SWAP4 SWAP3 SWAP2 SWAP1 PUSH2 0xDD6 JUMP JUMPDEST PUSH1 0x40 MLOAD DUP1 SWAP2 SUB SWAP1 RETURN JUMPDEST PUSH2 0xEB PUSH2 0x2F6 JUMP JUMPDEST PUSH1 0x40 MLOAD PUSH2 0xF8 SWAP2 SWAP1 PUSH2 0xE3E JUMP JUMPDEST PUSH1 0x40 MLOAD DUP1 SWAP2 SUB SWAP1 RETURN JUMPDEST PUSH2 0x11B PUSH1 0x4 DUP1 CALLDATASIZE SUB DUP2 ADD SWAP1 PUSH2 0x116 SWAP2 SWAP1 PUSH2 0xCAE JUMP JUMPDEST PUSH2 0x2FC JUMP JUMPDEST STOP JUMPDEST PUSH2 0x137 PUSH1 0x4 DUP1 CALLDATASIZE SUB DUP2 ADD SWAP1 PUSH2 0x132 SWAP2 SWAP1 PUSH2 0xF8E JUMP JUMPDEST PUSH2 0x58F JUMP JUMPDEST STOP JUMPDEST PUSH2 0x141 PUSH2 0x771 JUMP JUMPDEST PUSH1 0x40 MLOAD PUSH2 0x14E SWAP2 SWAP1 PUSH2 0xE3E JUMP JUMPDEST PUSH1 0x40 MLOAD DUP1 SWAP2 SUB SWAP1 RETURN JUMPDEST PUSH2 0x15F PUSH2 0x777 JUMP JUMPDEST PUSH1 0x40 MLOAD PUSH2 0x16C SWAP2 SWAP1 PUSH2 0xFD7 JUMP JUMPDEST PUSH1 0x40 MLOAD DUP1 SWAP2 SUB SWAP1 RETURN JUMPDEST PUSH2 0x18F PUSH1 0x4 DUP1 CALLDATASIZE SUB DUP2 ADD SWAP1 PUSH2 0x18A SWAP2 SWAP1 PUSH2 0x101E JUMP JUMPDEST PUSH2 0x79D JUMP JUMPDEST STOP JUMPDEST PUSH2 0x199 PUSH2 0xAC2 JUMP JUMPDEST PUSH1 0x40 MLOAD PUSH2 0x1A6 SWAP2 SWAP1 PUSH2 0xE3E JUMP JUMPDEST PUSH1 0x40 MLOAD DUP1 SWAP2 SUB SWAP1 RETURN JUMPDEST PUSH2 0x1C9 PUSH1 0x4 DUP1 CALLDATASIZE SUB DUP2 ADD SWAP1 PUSH2 0x1C4 SWAP2 SWAP1 PUSH2 0xCAE JUMP JUMPDEST PUSH2 0xAC8 JUMP JUMPDEST STOP JUMPDEST PUSH2 0x1E5 PUSH1 0x4 DUP1 CALLDATASIZE SUB DUP2 ADD SWAP1 PUSH2 0x1E0 SWAP2 SWAP1 PUSH2 0xCAE JUMP JUMPDEST PUSH2 0xB62 JUMP JUMPDEST STOP JUMPDEST PUSH2 0x1EF PUSH2 0xC40 JUMP JUMPDEST PUSH1 0x40 MLOAD PUSH2 0x1FC SWAP2 SWAP1 PUSH2 0x10BD JUMP JUMPDEST PUSH1 0x40 MLOAD DUP1 SWAP2 SUB SWAP1 RETURN JUMPDEST PUSH1 0x5 PUSH1 0x20 MSTORE DUP1 PUSH1 0x0 MSTORE PUSH1 0x40 PUSH1 0x0 KECCAK256 PUSH1 0x0 SWAP2 POP SWAP1 POP DUP1 PUSH1 0x0 ADD SLOAD SWAP1 DUP1 PUSH1 0x1 ADD PUSH1 0x0 SWAP1 SLOAD SWAP1 PUSH2 0x100 EXP SWAP1 DIV PUSH20 0xFFFFFFFFFFFFFFFFFFFFFFFFFFFFFFFFFFFFFFFF AND SWAP1 DUP1 PUSH1 0x2 ADD DUP1 SLOAD PUSH2 0x254 SWAP1 PUSH2 0x1107 JUMP JUMPDEST DUP1 PUSH1 0x1F ADD PUSH1 0x20 DUP1 SWAP2 DIV MUL PUSH1 0x20 ADD PUSH1 0x40 MLOAD SWAP1 DUP2 ADD PUSH1 0x40 MSTORE DUP1 SWAP3 SWAP2 SWAP1 DUP2 DUP2 MSTORE PUSH1 0x20 ADD DUP3 DUP1 SLOAD PUSH2 0x280 SWAP1 PUSH2 0x1107 JUMP JUMPDEST DUP1 ISZERO PUSH2 0x2CD JUMPI DUP1 PUSH1 0x1F LT PUSH2 0x2A2 JUMPI PUSH2 0x100 DUP1 DUP4 SLOAD DIV MUL DUP4 MSTORE SWAP2 PUSH1 0x20 ADD SWAP2 PUSH2 0x2CD JUMP JUMPDEST DUP3 ADD SWAP2 SWAP1 PUSH1 0x0 MSTORE PUSH1 0x20 PUSH1 0x0 KECCAK256 SWAP1 JUMPDEST DUP2 SLOAD DUP2 MSTORE SWAP1 PUSH1 0x1 ADD SWAP1 PUSH1 0x20 ADD DUP1 DUP4 GT PUSH2 0x2B0 JUMPI DUP3 SWAP1 SUB PUSH1 0x1F AND DUP3 ADD SWAP2 JUMPDEST POP POP POP POP POP SWAP1 DUP1 PUSH1 0x3 ADD SLOAD SWAP1 DUP1 PUSH1 0x4 ADD SLOAD SWAP1 DUP1 PUSH1 0x5 ADD PUSH1 0x0 SWAP1 SLOAD SWAP1 PUSH2 0x100 EXP SWAP1 DIV PUSH1 0xFF AND SWAP1 POP DUP7 JUMP JUMPDEST PUSH1 0x2 SLOAD DUP2 JUMP JUMPDEST PUSH1 0x4 PUSH1 0x0 SWAP1 SLOAD SWAP1 PUSH2 0x100 EXP SWAP1 DIV PUSH20 0xFFFFFFFFFFFFFFFFFFFFFFFFFFFFFFFFFFFFFFFF AND PUSH20 0xFFFFFFFFFFFFFFFFFFFFFFFFFFFFFFFFFFFFFFFF AND CALLER PUSH20 0xFFFFFFFFFFFFFFFFFFFFFFFFFFFFFFFFFFFFFFFF AND EQ PUSH2 0x38C JUMPI PUSH1 0x40 MLOAD PUSH32 0x8C379A000000000000000000000000000000000000000000000000000000000 DUP2 MSTORE PUSH1 0x4 ADD PUSH2 0x383 SWAP1 PUSH2 0x11AA JUMP JUMPDEST PUSH1 0x40 MLOAD DUP1 SWAP2 SUB SWAP1 REVERT JUMPDEST PUSH1 0x0 PUSH1 0x5 PUSH1 0x0 DUP4 DUP2 MSTORE PUSH1 0x20 ADD SWAP1 DUP2 MSTORE PUSH1 0x20 ADD PUSH1 0x0 KECCAK256 SWAP1 POP DUP1 PUSH1 0x4 ADD SLOAD TIMESTAMP LT ISZERO PUSH2 0x3EA JUMPI PUSH1 0x40 MLOAD PUSH32 0x8C379A000000000000000000000000000000000000000000000000000000000 DUP2 MSTORE PUSH1 0x4 ADD PUSH2 0x3E1 SWAP1 PUSH2 0x1216 JUMP JUMPDEST PUSH1 0x40 MLOAD DUP1 SWAP2 SUB SWAP1 REVERT JUMPDEST DUP1 PUSH1 0x5 ADD PUSH1 0x0 SWAP1 SLOAD SWAP1 PUSH2 0x100 EXP SWAP1 DIV PUSH1 0xFF AND ISZERO PUSH2 0x43C JUMPI PUSH1 0x40 MLOAD PUSH32 0x8C379A000000000000000000000000000000000000000000000000000000000 DUP2 MSTORE PUSH1 0x4 ADD PUSH2 0x433 SWAP1 PUSH2 0x1282 JUMP JUMPDEST PUSH1 0x40 MLOAD DUP1 SWAP2 SUB SWAP1 REVERT JUMPDEST PUSH1 0x0 DUP1 PUSH1 0x0 SWAP1 SLOAD SWAP1 PUSH2 0x100 EXP SWAP1 DIV PUSH20 0xFFFFFFFFFFFFFFFFFFFFFFFFFFFFFFFFFFFFFFFF AND PUSH20 0xFFFFFFFFFFFFFFFFFFFFFFFFFFFFFFFFFFFFFFFF AND PUSH4 0x18160DDD PUSH1 0x40 MLOAD DUP2 PUSH4 0xFFFFFFFF AND PUSH1 0xE0 SHL DUP2 MSTORE PUSH1 0x4 ADD PUSH1 0x20 PUSH1 0x40 MLOAD DUP1 DUP4 SUB DUP2 DUP7 GAS STATICCALL ISZERO DUP1 ISZERO PUSH2 0x4AA JUMPI RETURNDATASIZE PUSH1 0x0 DUP1 RETURNDATACOPY RETURNDATASIZE PUSH1 0x0 REVERT JUMPDEST POP POP POP POP PUSH1 0x40 MLOAD RETURNDATASIZE PUSH1 0x1F NOT PUSH1 0x1F DUP3 ADD AND DUP3 ADD DUP1 PUSH1 0x40 MSTORE POP DUP2 ADD SWAP1 PUSH2 0x4CE SWAP2 SWAP1 PUSH2 0x12B7 JUMP JUMPDEST SWAP1 POP PUSH1 0x0 PUSH1 0x64 PUSH1 0x3 SLOAD DUP4 PUSH2 0x4E2 SWAP2 SWAP1 PUSH2 0x1313 JUMP JUMPDEST PUSH2 0x4EC SWAP2 SWAP1 PUSH2 0x1384 JUMP JUMPDEST SWAP1 POP DUP1 DUP4 PUSH1 0x3 ADD SLOAD LT ISZERO PUSH2 0x535 JUMPI PUSH1 0x40 MLOAD PUSH32 0x8C379A000000000000000000000000000000000000000000000000000000000 DUP2 MSTORE PUSH1 0x4 ADD PUSH2 0x52C SWAP1 PUSH2 0x1401 JUMP JUMPDEST PUSH1 0x40 MLOAD DUP1 SWAP2 SUB SWAP1 REVERT JUMPDEST PUSH1 0x1 DUP4 PUSH1 0x5 ADD PUSH1 0x0 PUSH2 0x100 EXP DUP2 SLOAD DUP2 PUSH1 0xFF MUL NOT AND SWAP1 DUP4 ISZERO ISZERO MUL OR SWAP1 SSTORE POP PUSH32 0x712AE1383F79AC853F8D882153778E0260EF8F03B504E2866E0593E04D2B291F DUP5 PUSH1 0x40 MLOAD PUSH2 0x581 SWAP2 SWAP1 PUSH2 0xE3E JUMP JUMPDEST PUSH1 0x40 MLOAD DUP1 SWAP2 SUB SWAP1 LOG1 POP POP POP POP JUMP JUMPDEST PUSH1 0x0 DUP1 PUSH1 0x0 SWAP1 SLOAD SWAP1 PUSH2 0x100 EXP SWAP1 DIV PUSH20 0xFFFFFFFFFFFFFFFFFFFFFFFFFFFFFFFFFFFFFFFF AND PUSH20 0xFFFFFFFFFFFFFFFFFFFFFFFFFFFFFFFFFFFFFFFF AND PUSH4 0x70A08231 CALLER PUSH1 0x40 MLOAD DUP3 PUSH4 0xFFFFFFFF AND PUSH1 0xE0 SHL DUP2 MSTORE PUSH1 0x4 ADD PUSH2 0x5EB SWAP2 SWAP1 PUSH2 0xFD7 JUMP JUMPDEST PUSH1 0x20 PUSH1 0x40 MLOAD DUP1 DUP4 SUB DUP2 DUP7 GAS STATICCALL ISZERO DUP1 ISZERO PUSH2 0x608 JUMPI RETURNDATASIZE PUSH1 0x0 DUP1 RETURNDATACOPY RETURNDATASIZE PUSH1 0x0 REVERT JUMPDEST POP POP POP POP PUSH1 0x40 MLOAD RETURNDATASIZE PUSH1 0x1F NOT PUSH1 0x1F DUP3 ADD AND DUP3 ADD DUP1 PUSH1 0x40 MSTORE POP DUP2 ADD SWAP1 PUSH2 0x62C SWAP2 SWAP1 PUSH2 0x12B7 JUMP JUMPDEST GT PUSH2 0x66C JUMPI PUSH1 0x40 MLOAD PUSH32 0x8C379A000000000000000000000000000000000000000000000000000000000 DUP2 MSTORE PUSH1 0x4 ADD PUSH2 0x663 SWAP1 PUSH2 0x1493 JUMP JUMPDEST PUSH1 0x40 MLOAD DUP1 SWAP2 SUB SWAP1 REVERT JUMPDEST PUSH1 0x1 PUSH1 0x0 DUP2 SLOAD DUP1 SWAP3 SWAP2 SWAP1 PUSH2 0x67F SWAP1 PUSH2 0x14B3 JUMP JUMPDEST SWAP2 SWAP1 POP SSTORE POP PUSH1 0x0 PUSH1 0x5 PUSH1 0x0 PUSH1 0x1 SLOAD DUP2 MSTORE PUSH1 0x20 ADD SWAP1 DUP2 MSTORE PUSH1 0x20 ADD PUSH1 0x0 KECCAK256 SWAP1 POP PUSH1 0x1 SLOAD DUP2 PUSH1 0x0 ADD DUP2 SWAP1 SSTORE POP CALLER DUP2 PUSH1 0x1 ADD PUSH1 0x0 PUSH2 0x100 EXP DUP2 SLOAD DUP2 PUSH20 0xFFFFFFFFFFFFFFFFFFFFFFFFFFFFFFFFFFFFFFFF MUL NOT AND SWAP1 DUP4 PUSH20 0xFFFFFFFFFFFFFFFFFFFFFFFFFFFFFFFFFFFFFFFF AND MUL OR SWAP1 SSTORE POP DUP2 DUP2 PUSH1 0x2 ADD SWAP1 DUP2 PUSH2 0x6FC SWAP2 SWAP1 PUSH2 0x169D JUMP JUMPDEST POP PUSH1 0x2 SLOAD TIMESTAMP PUSH2 0x70B SWAP2 SWAP1 PUSH2 0x176F JUMP JUMPDEST DUP2 PUSH1 0x4 ADD DUP2 SWAP1 SSTORE POP PUSH1 0x0 DUP2 PUSH1 0x5 ADD PUSH1 0x0 PUSH2 0x100 EXP DUP2 SLOAD DUP2 PUSH1 0xFF MUL NOT AND SWAP1 DUP4 ISZERO ISZERO MUL OR SWAP1 SSTORE POP PUSH32 0x7585F467599D0F008985F231AF99293BE388626AC16CA59505C2F8F88969CD63 PUSH1 0x1 SLOAD CALLER DUP5 PUSH1 0x40 MLOAD PUSH2 0x765 SWAP4 SWAP3 SWAP2 SWAP1 PUSH2 0x17A3 JUMP JUMPDEST PUSH1 0x40 MLOAD DUP1 SWAP2 SUB SWAP1 LOG1 POP POP JUMP JUMPDEST PUSH1 0x3 SLOAD DUP2 JUMP JUMPDEST PUSH1 0x4 PUSH1 0x0 SWAP1 SLOAD SWAP1 PUSH2 0x100 EXP SWAP1 DIV PUSH20 0xFFFFFFFFFFFFFFFFFFFFFFFFFFFFFFFFFFFFFFFF AND DUP2 JUMP JUMPDEST PUSH1 0x0 DUP1 PUSH1 0x0 SWAP1 SLOAD SWAP1 PUSH2 0x100 EXP SWAP1 DIV PUSH20 0xFFFFFFFFFFFFFFFFFFFFFFFFFFFFFFFFFFFFFFFF AND PUSH20 0xFFFFFFFFFFFFFFFFFFFFFFFFFFFFFFFFFFFFFFFF AND PUSH4 0x70A08231 CALLER PUSH1 0x40 MLOAD DUP3 PUSH4 0xFFFFFFFF AND PUSH1 0xE0 SHL DUP2 MSTORE PUSH1 0x4 ADD PUSH2 0x7F9 SWAP2 SWAP1 PUSH2 0xFD7 JUMP JUMPDEST PUSH1 0x20 PUSH1 0x40 MLOAD DUP1 DUP4 SUB DUP2 DUP7 GAS STATICCALL ISZERO DUP1 ISZERO PUSH2 0x816 JUMPI RETURNDATASIZE PUSH1 0x0 DUP1 RETURNDATACOPY RETURNDATASIZE PUSH1 0x0 REVERT JUMPDEST POP POP POP POP PUSH1 0x40 MLOAD RETURNDATASIZE PUSH1 0x1F NOT PUSH1 0x1F DUP3 ADD AND DUP3 ADD DUP1 PUSH1 0x40 MSTORE POP DUP2 ADD SWAP1 PUSH2 0x83A SWAP2 SWAP1 PUSH2 0x12B7 JUMP JUMPDEST GT PUSH2 0x87A JUMPI PUSH1 0x40 MLOAD PUSH32 0x8C379A000000000000000000000000000000000000000000000000000000000 DUP2 MSTORE PUSH1 0x4 ADD PUSH2 0x871 SWAP1 PUSH2 0x1493 JUMP JUMPDEST PUSH1 0x40 MLOAD DUP1 SWAP2 SUB SWAP1 REVERT JUMPDEST PUSH1 0x0 PUSH1 0x5 PUSH1 0x0 DUP5 DUP2 MSTORE PUSH1 0x20 ADD SWAP1 DUP2 MSTORE PUSH1 0x20 ADD PUSH1 0x0 KECCAK256 SWAP1 POP DUP1 PUSH1 0x4 ADD SLOAD TIMESTAMP LT PUSH2 0x8D7 JUMPI PUSH1 0x40 MLOAD PUSH32 0x8C379A000000000000000000000000000000000000000000000000000000000 DUP2 MSTORE PUSH1 0x4 ADD PUSH2 0x8CE SWAP1 PUSH2 0x182D JUMP JUMPDEST PUSH1 0x40 MLOAD DUP1 SWAP2 SUB SWAP1 REVERT JUMPDEST DUP1 PUSH1 0x6 ADD PUSH1 0x0 CALLER PUSH20 0xFFFFFFFFFFFFFFFFFFFFFFFFFFFFFFFFFFFFFFFF AND PUSH20 0xFFFFFFFFFFFFFFFFFFFFFFFFFFFFFFFFFFFFFFFF AND DUP2 MSTORE PUSH1 0x20 ADD SWAP1 DUP2 MSTORE PUSH1 0x20 ADD PUSH1 0x0 KECCAK256 PUSH1 0x0 SWAP1 SLOAD SWAP1 PUSH2 0x100 EXP SWAP1 DIV PUSH1 0xFF AND ISZERO PUSH2 0x966 JUMPI PUSH1 0x40 MLOAD PUSH32 0x8C379A000000000000000000000000000000000000000000000000000000000 DUP2 MSTORE PUSH1 0x4 ADD PUSH2 0x95D SWAP1 PUSH2 0x1899 JUMP JUMPDEST PUSH1 0x40 MLOAD DUP1 SWAP2 SUB SWAP1 REVERT JUMPDEST PUSH1 0x0 DUP1 PUSH1 0x0 SWAP1 SLOAD SWAP1 PUSH2 0x100 EXP SWAP1 DIV PUSH20 0xFFFFFFFFFFFFFFFFFFFFFFFFFFFFFFFFFFFFFFFF AND PUSH20 0xFFFFFFFFFFFFFFFFFFFFFFFFFFFFFFFFFFFFFFFF AND PUSH4 0x70A08231 CALLER PUSH1 0x40 MLOAD DUP3 PUSH4 0xFFFFFFFF AND PUSH1 0xE0 SHL DUP2 MSTORE PUSH1 0x4 ADD PUSH2 0x9C2 SWAP2 SWAP1 PUSH2 0xFD7 JUMP JUMPDEST PUSH1 0x20 PUSH1 0x40 MLOAD DUP1 DUP4 SUB DUP2 DUP7 GAS STATICCALL ISZERO DUP1 ISZERO PUSH2 0x9DF JUMPI RETURNDATASIZE PUSH1 0x0 DUP1 RETURNDATACOPY RETURNDATASIZE PUSH1 0x0 REVERT JUMPDEST POP POP POP POP PUSH1 0x40 MLOAD RETURNDATASIZE PUSH1 0x1F NOT PUSH1 0x1F DUP3 ADD AND DUP3 ADD DUP1 PUSH1 0x40 MSTORE POP DUP2 ADD SWAP1 PUSH2 0xA03 SWAP2 SWAP1 PUSH2 0x12B7 JUMP JUMPDEST SWAP1 POP DUP3 ISZERO PUSH2 0xA27 JUMPI DUP1 DUP3 PUSH1 0x3 ADD PUSH1 0x0 DUP3 DUP3 SLOAD PUSH2 0xA1F SWAP2 SWAP1 PUSH2 0x176F JUMP JUMPDEST SWAP3 POP POP DUP2 SWAP1 SSTORE POP JUMPDEST PUSH1 0x1 DUP3 PUSH1 0x6 ADD PUSH1 0x0 CALLER PUSH20 0xFFFFFFFFFFFFFFFFFFFFFFFFFFFFFFFFFFFFFFFF AND PUSH20 0xFFFFFFFFFFFFFFFFFFFFFFFFFFFFFFFFFFFFFFFF AND DUP2 MSTORE PUSH1 0x20 ADD SWAP1 DUP2 MSTORE PUSH1 0x20 ADD PUSH1 0x0 KECCAK256 PUSH1 0x0 PUSH2 0x100 EXP DUP2 SLOAD DUP2 PUSH1 0xFF MUL NOT AND SWAP1 DUP4 ISZERO ISZERO MUL OR SWAP1 SSTORE POP PUSH32 0xF2913DBE661EE2ACC4A046D8FBCDC792373BDA34C41C6086484B5345E5785E5F DUP5 CALLER DUP6 PUSH1 0x40 MLOAD PUSH2 0xAB4 SWAP4 SWAP3 SWAP2 SWAP1 PUSH2 0x18B9 JUMP JUMPDEST PUSH1 0x40 MLOAD DUP1 SWAP2 SUB SWAP1 LOG1 POP POP POP POP JUMP JUMPDEST PUSH1 0x1 SLOAD DUP2 JUMP JUMPDEST PUSH1 0x4 PUSH1 0x0 SWAP1 SLOAD SWAP1 PUSH2 0x100 EXP SWAP1 DIV PUSH20 0xFFFFFFFFFFFFFFFFFFFFFFFFFFFFFFFFFFFFFFFF AND PUSH20 0xFFFFFFFFFFFFFFFFFFFFFFFFFFFFFFFFFFFFFFFF AND CALLER PUSH20 0xFFFFFFFFFFFFFFFFFFFFFFFFFFFFFFFFFFFFFFFF AND EQ PUSH2 0xB58 JUMPI PUSH1 0x40 MLOAD PUSH32 0x8C379A000000000000000000000000000000000000000000000000000000000 DUP2 MSTORE PUSH1 0x4 ADD PUSH2 0xB4F SWAP1 PUSH2 0x11AA JUMP JUMPDEST PUSH1 0x40 MLOAD DUP1 SWAP2 SUB SWAP1 REVERT JUMPDEST DUP1 PUSH1 0x2 DUP2 SWAP1 SSTORE POP POP JUMP JUMPDEST PUSH1 0x4 PUSH1 0x0 SWAP1 SLOAD SWAP1 PUSH2 0x100 EXP SWAP1 DIV PUSH20 0xFFFFFFFFFFFFFFFFFFFFFFFFFFFFFFFFFFFFFFFF AND PUSH20 0xFFFFFFFFFFFFFFFFFFFFFFFFFFFFFFFFFFFFFFFF AND CALLER PUSH20 0xFFFFFFFFFFFFFFFFFFFFFFFFFFFFFFFFFFFFFFFF AND EQ PUSH2 0xBF2 JUMPI PUSH1 0x40 MLOAD PUSH32 0x8C379A000000000000000000000000000000000000000000000000000000000 DUP2 MSTORE PUSH1 0x4 ADD PUSH2 0xBE9 SWAP1 PUSH2 0x11AA JUMP JUMPDEST PUSH1 0x40 MLOAD DUP1 SWAP2 SUB SWAP1 REVERT JUMPDEST PUSH1 0x64 DUP2 GT ISZERO PUSH2 0xC36 JUMPI PUSH1 0x40 MLOAD PUSH32 0x8C379A000000000000000000000000000000000000000000000000000000000 DUP2 MSTORE PUSH1 0x4 ADD PUSH2 0xC2D SWAP1 PUSH2 0x1962 JUMP JUMPDEST PUSH1 0x40 MLOAD DUP1 SWAP2 SUB SWAP1 REVERT JUMPDEST DUP1 PUSH1 0x3 DUP2 SWAP1 SSTORE POP POP JUMP JUMPDEST PUSH1 0x0 DUP1 SLOAD SWAP1 PUSH2 0x100 EXP SWAP1 DIV PUSH20 0xFFFFFFFFFFFFFFFFFFFFFFFFFFFFFFFFFFFFFFFF AND DUP2 JUMP JUMPDEST PUSH1 0x0 PUSH1 0x40 MLOAD SWAP1 POP SWAP1 JUMP JUMPDEST PUSH1 0x0 DUP1 REVERT JUMPDEST PUSH1 0x0 DUP1 REVERT JUMPDEST PUSH1 0x0 DUP2 SWAP1 POP SWAP2 SWAP1 POP JUMP JUMPDEST PUSH2 0xC8B DUP2 PUSH2 0xC78 JUMP JUMPDEST DUP2 EQ PUSH2 0xC96 JUMPI PUSH1 0x0 DUP1 REVERT JUMPDEST POP JUMP JUMPDEST PUSH1 0x0 DUP2 CALLDATALOAD SWAP1 POP PUSH2 0xCA8 DUP2 PUSH2 0xC82 JUMP JUMPDEST SWAP3 SWAP2 POP POP JUMP JUMPDEST PUSH1 0x0 PUSH1 0x20 DUP3 DUP5 SUB SLT ISZERO PUSH2 0xCC4 JUMPI PUSH2 0xCC3 PUSH2 0xC6E JUMP JUMPDEST JUMPDEST PUSH1 0x0 PUSH2 0xCD2 DUP5 DUP3 DUP6 ADD PUSH2 0xC99 JUMP JUMPDEST SWAP2 POP POP SWAP3 SWAP2 POP POP JUMP JUMPDEST PUSH2 0xCE4 DUP2 PUSH2 0xC78 JUMP JUMPDEST DUP3 MSTORE POP POP JUMP JUMPDEST PUSH1 0x0 PUSH20 0xFFFFFFFFFFFFFFFFFFFFFFFFFFFFFFFFFFFFFFFF DUP3 AND SWAP1 POP SWAP2 SWAP1 POP JUMP JUMPDEST PUSH1 0x0 PUSH2 0xD15 DUP3 PUSH2 0xCEA JUMP JUMPDEST SWAP1 POP SWAP2 SWAP1 POP JUMP JUMPDEST PUSH2 0xD25 DUP2 PUSH2 0xD0A JUMP JUMPDEST DUP3 MSTORE POP POP JUMP JUMPDEST PUSH1 0x0 DUP2 MLOAD SWAP1 POP SWAP2 SWAP1 POP JUMP JUMPDEST PUSH1 0x0 DUP3 DUP3 MSTORE PUSH1 0x20 DUP3 ADD SWAP1 POP SWAP3 SWAP2 POP POP JUMP JUMPDEST PUSH1 0x0 JUMPDEST DUP4 DUP2 LT ISZERO PUSH2 0xD65 JUMPI DUP1 DUP3 ADD MLOAD DUP2 DUP5 ADD MSTORE PUSH1 0x20 DUP2 ADD SWAP1 POP PUSH2 0xD4A JUMP JUMPDEST PUSH1 0x0 DUP5 DUP5 ADD MSTORE POP POP POP POP JUMP JUMPDEST PUSH1 0x0 PUSH1 0x1F NOT PUSH1 0x1F DUP4 ADD AND SWAP1 POP SWAP2 SWAP1 POP JUMP JUMPDEST PUSH1 0x0 PUSH2 0xD8D DUP3 PUSH2 0xD2B JUMP JUMPDEST PUSH2 0xD97 DUP2 DUP6 PUSH2 0xD36 JUMP JUMPDEST SWAP4 POP PUSH2 0xDA7 DUP2 DUP6 PUSH1 0x20 DUP7 ADD PUSH2 0xD47 JUMP JUMPDEST PUSH2 0xDB0 DUP2 PUSH2 0xD71 JUMP JUMPDEST DUP5 ADD SWAP2 POP POP SWAP3 SWAP2 POP POP JUMP JUMPDEST PUSH1 0x0 DUP2 ISZERO ISZERO SWAP1 POP SWAP2 SWAP1 POP JUMP JUMPDEST PUSH2 0xDD0 DUP2 PUSH2 0xDBB JUMP JUMPDEST DUP3 MSTORE POP POP JUMP JUMPDEST PUSH1 0x0 PUSH1 0xC0 DUP3 ADD SWAP1 POP PUSH2 0xDEB PUSH1 0x0 DUP4 ADD DUP10 PUSH2 0xCDB JUMP JUMPDEST PUSH2 0xDF8 PUSH1 0x20 DUP4 ADD DUP9 PUSH2 0xD1C JUMP JUMPDEST DUP2 DUP2 SUB PUSH1 0x40 DUP4 ADD MSTORE PUSH2 0xE0A DUP2 DUP8 PUSH2 0xD82 JUMP JUMPDEST SWAP1 POP PUSH2 0xE19 PUSH1 0x60 DUP4 ADD DUP7 PUSH2 0xCDB JUMP JUMPDEST PUSH2 0xE26 PUSH1 0x80 DUP4 ADD DUP6 PUSH2 0xCDB JUMP JUMPDEST PUSH2 0xE33 PUSH1 0xA0 DUP4 ADD DUP5 PUSH2 0xDC7 JUMP JUMPDEST SWAP8 SWAP7 POP POP POP POP POP POP POP JUMP JUMPDEST PUSH1 0x0 PUSH1 0x20 DUP3 ADD SWAP1 POP PUSH2 0xE53 PUSH1 0x0 DUP4 ADD DUP5 PUSH2 0xCDB JUMP JUMPDEST SWAP3 SWAP2 POP POP JUMP JUMPDEST PUSH1 0x0 DUP1 REVERT JUMPDEST PUSH1 0x0 DUP1 REVERT JUMPDEST PUSH32 0x4E487B7100000000000000000000000000000000000000000000000000000000 PUSH1 0x0 MSTORE PUSH1 0x41 PUSH1 0x4 MSTORE PUSH1 0x24 PUSH1 0x0 REVERT JUMPDEST PUSH2 0xE9B DUP3 PUSH2 0xD71 JUMP JUMPDEST DUP2 ADD DUP2 DUP2 LT PUSH8 0xFFFFFFFFFFFFFFFF DUP3 GT OR ISZERO PUSH2 0xEBA JUMPI PUSH2 0xEB9 PUSH2 0xE63 JUMP JUMPDEST JUMPDEST DUP1 PUSH1 0x40 MSTORE POP POP POP JUMP JUMPDEST PUSH1 0x0 PUSH2 0xECD PUSH2 0xC64 JUMP JUMPDEST SWAP1 POP PUSH2 0xED9 DUP3 DUP3 PUSH2 0xE92 JUMP JUMPDEST SWAP2 SWAP1 POP JUMP JUMPDEST PUSH1 0x0 PUSH8 0xFFFFFFFFFFFFFFFF DUP3 GT ISZERO PUSH2 0xEF9 JUMPI PUSH2 0xEF8 PUSH2 0xE63 JUMP JUMPDEST JUMPDEST PUSH2 0xF02 DUP3 PUSH2 0xD71 JUMP JUMPDEST SWAP1 POP PUSH1 0x20 DUP2 ADD SWAP1 POP SWAP2 SWAP1 POP JUMP JUMPDEST DUP3 DUP2 DUP4 CALLDATACOPY PUSH1 0x0 DUP4 DUP4 ADD MSTORE POP POP POP JUMP JUMPDEST PUSH1 0x0 PUSH2 0xF31 PUSH2 0xF2C DUP5 PUSH2 0xEDE JUMP JUMPDEST PUSH2 0xEC3 JUMP JUMPDEST SWAP1 POP DUP3 DUP2 MSTORE PUSH1 0x20 DUP2 ADD DUP5 DUP5 DUP5 ADD GT ISZERO PUSH2 0xF4D JUMPI PUSH2 0xF4C PUSH2 0xE5E JUMP JUMPDEST JUMPDEST PUSH2 0xF58 DUP5 DUP3 DUP6 PUSH2 0xF0F JUMP JUMPDEST POP SWAP4 SWAP3 POP POP POP JUMP JUMPDEST PUSH1 0x0 DUP3 PUSH1 0x1F DUP4 ADD SLT PUSH2 0xF75 JUMPI PUSH2 0xF74 PUSH2 0xE59 JUMP JUMPDEST JUMPDEST DUP2 CALLDATALOAD PUSH2 0xF85 DUP5 DUP3 PUSH1 0x20 DUP7 ADD PUSH2 0xF1E JUMP JUMPDEST SWAP2 POP POP SWAP3 SWAP2 POP POP JUMP JUMPDEST PUSH1 0x0 PUSH1 0x20 DUP3 DUP5 SUB SLT ISZERO PUSH2 0xFA4 JUMPI PUSH2 0xFA3 PUSH2 0xC6E JUMP JUMPDEST JUMPDEST PUSH1 0x0 DUP3 ADD CALLDATALOAD PUSH8 0xFFFFFFFFFFFFFFFF DUP2 GT ISZERO PUSH2 0xFC2 JUMPI PUSH2 0xFC1 PUSH2 0xC73 JUMP JUMPDEST JUMPDEST PUSH2 0xFCE DUP5 DUP3 DUP6 ADD PUSH2 0xF60 JUMP JUMPDEST SWAP2 POP POP SWAP3 SWAP2 POP POP JUMP JUMPDEST PUSH1 0x0 PUSH1 0x20 DUP3 ADD SWAP1 POP PUSH2 0xFEC PUSH1 0x0 DUP4 ADD DUP5 PUSH2 0xD1C JUMP JUMPDEST SWAP3 SWAP2 POP POP JUMP JUMPDEST PUSH2 0xFFB DUP2 PUSH2 0xDBB JUMP JUMPDEST DUP2 EQ PUSH2 0x1006 JUMPI PUSH1 0x0 DUP1 REVERT JUMPDEST POP JUMP JUMPDEST PUSH1 0x0 DUP2 CALLDATALOAD SWAP1 POP PUSH2 0x1018 DUP2 PUSH2 0xFF2 JUMP JUMPDEST SWAP3 SWAP2 POP POP JUMP JUMPDEST PUSH1 0x0 DUP1 PUSH1 0x40 DUP4 DUP6 SUB SLT ISZERO PUSH2 0x1035 JUMPI PUSH2 0x1034 PUSH2 0xC6E JUMP JUMPDEST JUMPDEST PUSH1 0x0 PUSH2 0x1043 DUP6 DUP3 DUP7 ADD PUSH2 0xC99 JUMP JUMPDEST SWAP3 POP POP PUSH1 0x20 PUSH2 0x1054 DUP6 DUP3 DUP7 ADD PUSH2 0x1009 JUMP JUMPDEST SWAP2 POP POP SWAP3 POP SWAP3 SWAP1 POP JUMP JUMPDEST PUSH1 0x0 DUP2 SWAP1 POP SWAP2 SWAP1 POP JUMP JUMPDEST PUSH1 0x0 PUSH2 0x1083 PUSH2 0x107E PUSH2 0x1079 DUP5 PUSH2 0xCEA JUMP JUMPDEST PUSH2 0x105E JUMP JUMPDEST PUSH2 0xCEA JUMP JUMPDEST SWAP1 POP SWAP2 SWAP1 POP JUMP JUMPDEST PUSH1 0x0 PUSH2 0x1095 DUP3 PUSH2 0x1068 JUMP JUMPDEST SWAP1 POP SWAP2 SWAP1 POP JUMP JUMPDEST PUSH1 0x0 PUSH2 0x10A7 DUP3 PUSH2 0x108A JUMP JUMPDEST SWAP1 POP SWAP2 SWAP1 POP JUMP JUMPDEST PUSH2 0x10B7 DUP2 PUSH2 0x109C JUMP JUMPDEST DUP3 MSTORE POP POP JUMP JUMPDEST PUSH1 0x0 PUSH1 0x20 DUP3 ADD SWAP1 POP PUSH2 0x10D2 PUSH1 0x0 DUP4 ADD DUP5 PUSH2 0x10AE JUMP JUMPDEST SWAP3 SWAP2 POP POP JUMP JUMPDEST PUSH32 0x4E487B7100000000000000000000000000000000000000000000000000000000 PUSH1 0x0 MSTORE PUSH1 0x22 PUSH1 0x4 MSTORE PUSH1 0x24 PUSH1 0x0 REVERT JUMPDEST PUSH1 0x0 PUSH1 0x2 DUP3 DIV SWAP1 POP PUSH1 0x1 DUP3 AND DUP1 PUSH2 0x111F JUMPI PUSH1 0x7F DUP3 AND SWAP2 POP JUMPDEST PUSH1 0x20 DUP3 LT DUP2 SUB PUSH2 0x1132 JUMPI PUSH2 0x1131 PUSH2 0x10D8 JUMP JUMPDEST JUMPDEST POP SWAP2 SWAP1 POP JUMP JUMPDEST PUSH32 0x4F6E6C79206F776E65722063616E20706572666F726D20746869732061637469 PUSH1 0x0 DUP3 ADD MSTORE PUSH32 0x6F6E000000000000000000000000000000000000000000000000000000000000 PUSH1 0x20 DUP3 ADD MSTORE POP JUMP JUMPDEST PUSH1 0x0 PUSH2 0x1194 PUSH1 0x22 DUP4 PUSH2 0xD36 JUMP JUMPDEST SWAP2 POP PUSH2 0x119F DUP3 PUSH2 0x1138 JUMP JUMPDEST PUSH1 0x40 DUP3 ADD SWAP1 POP SWAP2 SWAP1 POP JUMP JUMPDEST PUSH1 0x0 PUSH1 0x20 DUP3 ADD SWAP1 POP DUP2 DUP2 SUB PUSH1 0x0 DUP4 ADD MSTORE PUSH2 0x11C3 DUP2 PUSH2 0x1187 JUMP JUMPDEST SWAP1 POP SWAP2 SWAP1 POP JUMP JUMPDEST PUSH32 0x566F74696E6720706572696F6420686173206E6F7420656E6465640000000000 PUSH1 0x0 DUP3 ADD MSTORE POP JUMP JUMPDEST PUSH1 0x0 PUSH2 0x1200 PUSH1 0x1B DUP4 PUSH2 0xD36 JUMP JUMPDEST SWAP2 POP PUSH2 0x120B DUP3 PUSH2 0x11CA JUMP JUMPDEST PUSH1 0x20 DUP3 ADD SWAP1 POP SWAP2 SWAP1 POP JUMP JUMPDEST PUSH1 0x0 PUSH1 0x20 DUP3 ADD SWAP1 POP DUP2 DUP2 SUB PUSH1 0x0 DUP4 ADD MSTORE PUSH2 0x122F DUP2 PUSH2 0x11F3 JUMP JUMPDEST SWAP1 POP SWAP2 SWAP1 POP JUMP JUMPDEST PUSH32 0x50726F706F73616C20616C726561647920657865637574656400000000000000 PUSH1 0x0 DUP3 ADD MSTORE POP JUMP JUMPDEST PUSH1 0x0 PUSH2 0x126C PUSH1 0x19 DUP4 PUSH2 0xD36 JUMP JUMPDEST SWAP2 POP PUSH2 0x1277 DUP3 PUSH2 0x1236 JUMP JUMPDEST PUSH1 0x20 DUP3 ADD SWAP1 POP SWAP2 SWAP1 POP JUMP JUMPDEST PUSH1 0x0 PUSH1 0x20 DUP3 ADD SWAP1 POP DUP2 DUP2 SUB PUSH1 0x0 DUP4 ADD MSTORE PUSH2 0x129B DUP2 PUSH2 0x125F JUMP JUMPDEST SWAP1 POP SWAP2 SWAP1 POP JUMP JUMPDEST PUSH1 0x0 DUP2 MLOAD SWAP1 POP PUSH2 0x12B1 DUP2 PUSH2 0xC82 JUMP JUMPDEST SWAP3 SWAP2 POP POP JUMP JUMPDEST PUSH1 0x0 PUSH1 0x20 DUP3 DUP5 SUB SLT ISZERO PUSH2 0x12CD JUMPI PUSH2 0x12CC PUSH2 0xC6E JUMP JUMPDEST JUMPDEST PUSH1 0x0 PUSH2 0x12DB DUP5 DUP3 DUP6 ADD PUSH2 0x12A2 JUMP JUMPDEST SWAP2 POP POP SWAP3 SWAP2 POP POP JUMP JUMPDEST PUSH32 0x4E487B7100000000000000000000000000000000000000000000000000000000 PUSH1 0x0 MSTORE PUSH1 0x11 PUSH1 0x4 MSTORE PUSH1 0x24 PUSH1 0x0 REVERT JUMPDEST PUSH1 0x0 PUSH2 0x131E DUP3 PUSH2 0xC78 JUMP JUMPDEST SWAP2 POP PUSH2 0x1329 DUP4 PUSH2 0xC78 JUMP JUMPDEST SWAP3 POP DUP3 DUP3 MUL PUSH2 0x1337 DUP2 PUSH2 0xC78 JUMP JUMPDEST SWAP2 POP DUP3 DUP3 DIV DUP5 EQ DUP4 ISZERO OR PUSH2 0x134E JUMPI PUSH2 0x134D PUSH2 0x12E4 JUMP JUMPDEST JUMPDEST POP SWAP3 SWAP2 POP POP JUMP JUMPDEST PUSH32 0x4E487B7100000000000000000000000000000000000000000000000000000000 PUSH1 0x0 MSTORE PUSH1 0x12 PUSH1 0x4 MSTORE PUSH1 0x24 PUSH1 0x0 REVERT JUMPDEST PUSH1 0x0 PUSH2 0x138F DUP3 PUSH2 0xC78 JUMP JUMPDEST SWAP2 POP PUSH2 0x139A DUP4 PUSH2 0xC78 JUMP JUMPDEST SWAP3 POP DUP3 PUSH2 0x13AA JUMPI PUSH2 0x13A9 PUSH2 0x1355 JUMP JUMPDEST JUMPDEST DUP3 DUP3 DIV SWAP1 POP SWAP3 SWAP2 POP POP JUMP JUMPDEST PUSH32 0x51756F72756D206E6F7420726561636865640000000000000000000000000000 PUSH1 0x0 DUP3 ADD MSTORE POP JUMP JUMPDEST PUSH1 0x0 PUSH2 0x13EB PUSH1 0x12 DUP4 PUSH2 0xD36 JUMP JUMPDEST SWAP2 POP PUSH2 0x13F6 DUP3 PUSH2 0x13B5 JUMP JUMPDEST PUSH1 0x20 DUP3 ADD SWAP1 POP SWAP2 SWAP1 POP JUMP JUMPDEST PUSH1 0x0 PUSH1 0x20 DUP3 ADD SWAP1 POP DUP2 DUP2 SUB PUSH1 0x0 DUP4 ADD MSTORE PUSH2 0x141A DUP2 PUSH2 0x13DE JUMP JUMPDEST SWAP1 POP SWAP2 SWAP1 POP JUMP JUMPDEST PUSH32 0x4F6E6C7920746F6B656E20686F6C646572732063616E20706572666F726D2074 PUSH1 0x0 DUP3 ADD MSTORE PUSH32 0x68697320616374696F6E00000000000000000000000000000000000000000000 PUSH1 0x20 DUP3 ADD MSTORE POP JUMP JUMPDEST PUSH1 0x0 PUSH2 0x147D PUSH1 0x2A DUP4 PUSH2 0xD36 JUMP JUMPDEST SWAP2 POP PUSH2 0x1488 DUP3 PUSH2 0x1421 JUMP JUMPDEST PUSH1 0x40 DUP3 ADD SWAP1 POP SWAP2 SWAP1 POP JUMP JUMPDEST PUSH1 0x0 PUSH1 0x20 DUP3 ADD SWAP1 POP DUP2 DUP2 SUB PUSH1 0x0 DUP4 ADD MSTORE PUSH2 0x14AC DUP2 PUSH2 0x1470 JUMP JUMPDEST SWAP1 POP SWAP2 SWAP1 POP JUMP JUMPDEST PUSH1 0x0 PUSH2 0x14BE DUP3 PUSH2 0xC78 JUMP JUMPDEST SWAP2 POP PUSH32 0xFFFFFFFFFFFFFFFFFFFFFFFFFFFFFFFFFFFFFFFFFFFFFFFFFFFFFFFFFFFFFFFF DUP3 SUB PUSH2 0x14F0 JUMPI PUSH2 0x14EF PUSH2 0x12E4 JUMP JUMPDEST JUMPDEST PUSH1 0x1 DUP3 ADD SWAP1 POP SWAP2 SWAP1 POP JUMP JUMPDEST PUSH1 0x0 DUP2 SWAP1 POP DUP2 PUSH1 0x0 MSTORE PUSH1 0x20 PUSH1 0x0 KECCAK256 SWAP1 POP SWAP2 SWAP1 POP JUMP JUMPDEST PUSH1 0x0 PUSH1 0x20 PUSH1 0x1F DUP4 ADD DIV SWAP1 POP SWAP2 SWAP1 POP JUMP JUMPDEST PUSH1 0x0 DUP3 DUP3 SHL SWAP1 POP SWAP3 SWAP2 POP POP JUMP JUMPDEST PUSH1 0x0 PUSH1 0x8 DUP4 MUL PUSH2 0x155D PUSH32 0xFFFFFFFFFFFFFFFFFFFFFFFFFFFFFFFFFFFFFFFFFFFFFFFFFFFFFFFFFFFFFFFF DUP3 PUSH2 0x1520 JUMP JUMPDEST PUSH2 0x1567 DUP7 DUP4 PUSH2 0x1520 JUMP JUMPDEST SWAP6 POP DUP1 NOT DUP5 AND SWAP4 POP DUP1 DUP7 AND DUP5 OR SWAP3 POP POP POP SWAP4 SWAP3 POP POP POP JUMP JUMPDEST PUSH1 0x0 PUSH2 0x159A PUSH2 0x1595 PUSH2 0x1590 DUP5 PUSH2 0xC78 JUMP JUMPDEST PUSH2 0x105E JUMP JUMPDEST PUSH2 0xC78 JUMP JUMPDEST SWAP1 POP SWAP2 SWAP1 POP JUMP JUMPDEST PUSH1 0x0 DUP2 SWAP1 POP SWAP2 SWAP1 POP JUMP JUMPDEST PUSH2 0x15B4 DUP4 PUSH2 0x157F JUMP JUMPDEST PUSH2 0x15C8 PUSH2 0x15C0 DUP3 PUSH2 0x15A1 JUMP JUMPDEST DUP5 DUP5 SLOAD PUSH2 0x152D JUMP JUMPDEST DUP3 SSTORE POP POP POP POP JUMP JUMPDEST PUSH1 0x0 SWAP1 JUMP JUMPDEST PUSH2 0x15DD PUSH2 0x15D0 JUMP JUMPDEST PUSH2 0x15E8 DUP2 DUP5 DUP5 PUSH2 0x15AB JUMP JUMPDEST POP POP POP JUMP JUMPDEST JUMPDEST DUP2 DUP2 LT ISZERO PUSH2 0x160C JUMPI PUSH2 0x1601 PUSH1 0x0 DUP3 PUSH2 0x15D5 JUMP JUMPDEST PUSH1 0x1 DUP2 ADD SWAP1 POP PUSH2 0x15EE JUMP JUMPDEST POP POP JUMP JUMPDEST PUSH1 0x1F DUP3 GT ISZERO PUSH2 0x1651 JUMPI PUSH2 0x1622 DUP2 PUSH2 0x14FB JUMP JUMPDEST PUSH2 0x162B DUP5 PUSH2 0x1510 JUMP JUMPDEST DUP2 ADD PUSH1 0x20 DUP6 LT ISZERO PUSH2 0x163A JUMPI DUP2 SWAP1 POP JUMPDEST PUSH2 0x164E PUSH2 0x1646 DUP6 PUSH2 0x1510 JUMP JUMPDEST DUP4 ADD DUP3 PUSH2 0x15ED JUMP JUMPDEST POP POP JUMPDEST POP POP POP JUMP JUMPDEST PUSH1 0x0 DUP3 DUP3 SHR SWAP1 POP SWAP3 SWAP2 POP POP JUMP JUMPDEST PUSH1 0x0 PUSH2 0x1674 PUSH1 0x0 NOT DUP5 PUSH1 0x8 MUL PUSH2 0x1656 JUMP JUMPDEST NOT DUP1 DUP4 AND SWAP2 POP POP SWAP3 SWAP2 POP POP JUMP JUMPDEST PUSH1 0x0 PUSH2 0x168D DUP4 DUP4 PUSH2 0x1663 JUMP JUMPDEST SWAP2 POP DUP3 PUSH1 0x2 MUL DUP3 OR SWAP1 POP SWAP3 SWAP2 POP POP JUMP JUMPDEST PUSH2 0x16A6 DUP3 PUSH2 0xD2B JUMP JUMPDEST PUSH8 0xFFFFFFFFFFFFFFFF DUP2 GT ISZERO PUSH2 0x16BF JUMPI PUSH2 0x16BE PUSH2 0xE63 JUMP JUMPDEST JUMPDEST PUSH2 0x16C9 DUP3 SLOAD PUSH2 0x1107 JUMP JUMPDEST PUSH2 0x16D4 DUP3 DUP3 DUP6 PUSH2 0x1610 JUMP JUMPDEST PUSH1 0x0 PUSH1 0x20 SWAP1 POP PUSH1 0x1F DUP4 GT PUSH1 0x1 DUP2 EQ PUSH2 0x1707 JUMPI PUSH1 0x0 DUP5 ISZERO PUSH2 0x16F5 JUMPI DUP3 DUP8 ADD MLOAD SWAP1 POP JUMPDEST PUSH2 0x16FF DUP6 DUP3 PUSH2 0x1681 JUMP JUMPDEST DUP7 SSTORE POP PUSH2 0x1767 JUMP JUMPDEST PUSH1 0x1F NOT DUP5 AND PUSH2 0x1715 DUP7 PUSH2 0x14FB JUMP JUMPDEST PUSH1 0x0 JUMPDEST DUP3 DUP2 LT ISZERO PUSH2 0x173D JUMPI DUP5 DUP10 ADD MLOAD DUP3 SSTORE PUSH1 0x1 DUP3 ADD SWAP2 POP PUSH1 0x20 DUP6 ADD SWAP5 POP PUSH1 0x20 DUP2 ADD SWAP1 POP PUSH2 0x1718 JUMP JUMPDEST DUP7 DUP4 LT ISZERO PUSH2 0x175A JUMPI DUP5 DUP10 ADD MLOAD PUSH2 0x1756 PUSH1 0x1F DUP10 AND DUP3 PUSH2 0x1663 JUMP JUMPDEST DUP4 SSTORE POP JUMPDEST PUSH1 0x1 PUSH1 0x2 DUP9 MUL ADD DUP9 SSTORE POP POP POP JUMPDEST POP POP POP POP POP POP JUMP JUMPDEST PUSH1 0x0 PUSH2 0x177A DUP3 PUSH2 0xC78 JUMP JUMPDEST SWAP2 POP PUSH2 0x1785 DUP4 PUSH2 0xC78 JUMP JUMPDEST SWAP3 POP DUP3 DUP3 ADD SWAP1 POP DUP1 DUP3 GT ISZERO PUSH2 0x179D JUMPI PUSH2 0x179C PUSH2 0x12E4 JUMP JUMPDEST JUMPDEST SWAP3 SWAP2 POP POP JUMP JUMPDEST PUSH1 0x0 PUSH1 0x60 DUP3 ADD SWAP1 POP PUSH2 0x17B8 PUSH1 0x0 DUP4 ADD DUP7 PUSH2 0xCDB JUMP JUMPDEST PUSH2 0x17C5 PUSH1 0x20 DUP4 ADD DUP6 PUSH2 0xD1C JUMP JUMPDEST DUP2 DUP2 SUB PUSH1 0x40 DUP4 ADD MSTORE PUSH2 0x17D7 DUP2 DUP5 PUSH2 0xD82 JUMP JUMPDEST SWAP1 POP SWAP5 SWAP4 POP POP POP POP JUMP JUMPDEST PUSH32 0x566F74696E6720706572696F642068617320656E646564000000000000000000 PUSH1 0x0 DUP3 ADD MSTORE POP JUMP JUMPDEST PUSH1 0x0 PUSH2 0x1817 PUSH1 0x17 DUP4 PUSH2 0xD36 JUMP JUMPDEST SWAP2 POP PUSH2 0x1822 DUP3 PUSH2 0x17E1 JUMP JUMPDEST PUSH1 0x20 DUP3 ADD SWAP1 POP SWAP2 SWAP1 POP JUMP JUMPDEST PUSH1 0x0 PUSH1 0x20 DUP3 ADD SWAP1 POP DUP2 DUP2 SUB PUSH1 0x0 DUP4 ADD MSTORE PUSH2 0x1846 DUP2 PUSH2 0x180A JUMP JUMPDEST SWAP1 POP SWAP2 SWAP1 POP JUMP JUMPDEST PUSH32 0x596F75206861766520616C726561647920766F74656400000000000000000000 PUSH1 0x0 DUP3 ADD MSTORE POP JUMP JUMPDEST PUSH1 0x0 PUSH2 0x1883 PUSH1 0x16 DUP4 PUSH2 0xD36 JUMP JUMPDEST SWAP2 POP PUSH2 0x188E DUP3 PUSH2 0x184D JUMP JUMPDEST PUSH1 0x20 DUP3 ADD SWAP1 POP SWAP2 SWAP1 POP JUMP JUMPDEST PUSH1 0x0 PUSH1 0x20 DUP3 ADD SWAP1 POP DUP2 DUP2 SUB PUSH1 0x0 DUP4 ADD MSTORE PUSH2 0x18B2 DUP2 PUSH2 0x1876 JUMP JUMPDEST SWAP1 POP SWAP2 SWAP1 POP JUMP JUMPDEST PUSH1 0x0 PUSH1 0x60 DUP3 ADD SWAP1 POP PUSH2 0x18CE PUSH1 0x0 DUP4 ADD DUP7 PUSH2 0xCDB JUMP JUMPDEST PUSH2 0x18DB PUSH1 0x20 DUP4 ADD DUP6 PUSH2 0xD1C JUMP JUMPDEST PUSH2 0x18E8 PUSH1 0x40 DUP4 ADD DUP5 PUSH2 0xDC7 JUMP JUMPDEST SWAP5 SWAP4 POP POP POP POP JUMP JUMPDEST PUSH32 0x51756F72756D2070657263656E746167652063616E6E6F742065786365656420 PUSH1 0x0 DUP3 ADD MSTORE PUSH32 0x3130300000000000000000000000000000000000000000000000000000000000 PUSH1 0x20 DUP3 ADD MSTORE POP JUMP JUMPDEST PUSH1 0x0 PUSH2 0x194C PUSH1 0x23 DUP4 PUSH2 0xD36 JUMP JUMPDEST SWAP2 POP PUSH2 0x1957 DUP3 PUSH2 0x18F0 JUMP JUMPDEST PUSH1 0x40 DUP3 ADD SWAP1 POP SWAP2 SWAP1 POP JUMP JUMPDEST PUSH1 0x0 PUSH1 0x20 DUP3 ADD SWAP1 POP DUP2 DUP2 SUB PUSH1 0x0 DUP4 ADD MSTORE PUSH2 0x197B DUP2 PUSH2 0x193F JUMP JUMPDEST SWAP1 POP SWAP2 SWAP1 POP JUMP INVALID LOG2 PUSH5 0x6970667358 0x22 SLT KECCAK256 CALLDATALOAD EXTCODECOPY 0x2F SWAP14 GASLIMIT SWAP11 0xDC 0xCE LOG0 DUP9 CALLDATASIZE SHL STOP CALLDATALOAD CALLDATALOAD 0xC9 SAR PUSH6 0x4D0916AAD8E9 PUSH10 0x888EA401E5B67C64736F PUSH13 0x63430008180033000000000000 "},"methodIdentifiers":{"createProposal(string)":"49c2a1a6","executeProposal(uint256)":"0d61b519","governanceToken()":"f96dae0a","owner()":"8da5cb5b","proposalCount()":"da35c664","proposals(uint256)":"013cf08b","quorumPercentage()":"4fa76ec9","updateQuorumPercentage(uint256)":"f0f9e6b7","updateVotingPeriod(uint256)":"ef00ef43","vote(uint256,bool)":"c9d27afe","votingPeriod()":"02a251a3"}}}}}