{
  "_format": "hh-sol-artifact-1",
  "contractName": "AdvancedDAO",
  "sourceName": "contracts/AdvancedDAO.sol",
  "abi": [
    {
      "inputs": [
        {
          "internalType": "contract IERC20",
          "name": "_governanceToken",
          "type": "address"
        },
        {
          "internalType": "uint256",
          "name": "_votingPeriod",
          "type": "uint256"
        },
        {
          "internalType": "uint256",
          "name": "_quorumPercentage",
          "type": "uint256"
        }
      ],
      "stateMutability": "nonpayable",
      "type": "constructor"
    },
    {
      "anonymous": false,
      "inputs": [
        {
          "indexed": false,
          "internalType": "uint256",
          "name": "id",
          "type": "uint256"
        },
        {
          "indexed": false,
          "internalType": "address",
          "name": "proposer",
          "type": "address"
        },
        {
          "indexed": false,
          "internalType": "string",
          "name": "description",
          "type": "string"
        }
      ],
      "name": "ProposalCreated",
      "type": "event"
    },
    {
      "anonymous": false,
      "inputs": [
        {
          "indexed": false,
          "internalType": "uint256",
          "name": "proposalId",
          "type": "uint256"
        }
      ],
      "name": "ProposalExecuted",
      "type": "event"
    },
    {
      "anonymous": false,
      "inputs": [
        {
          "indexed": false,
          "internalType": "uint256",
          "name": "proposalId",
          "type": "uint256"
        },
        {
          "indexed": false,
          "internalType": "address",
          "name": "voter",
          "type": "address"
        },
        {
          "indexed": false,
          "internalType": "bool",
          "name": "support",
          "type": "bool"
        }
      ],
      "name": "Voted",
      "type": "event"
    },
    {
      "inputs": [
        {
          "internalType": "string",
          "name": "_description",
          "type": "string"
        }
      ],
      "name": "createProposal",
      "outputs": [],
      "stateMutability": "nonpayable",
      "type": "function"
    },
    {
      "inputs": [
        {
          "internalType": "uint256",
          "name": "_proposalId",
          "type": "uint256"
        }
      ],
      "name": "executeProposal",
      "outputs": [],
      "stateMutability": "nonpayable",
      "type": "function"
    },
    {
      "inputs": [],
      "name": "governanceToken",
      "outputs": [
        {
          "internalType": "contract IERC20",
          "name": "",
          "type": "address"
        }
      ],
      "stateMutability": "view",
      "type": "function"
    },
    {
      "inputs": [],
      "name": "owner",
      "outputs": [
        {
          "internalType": "address",
          "name": "",
          "type": "address"
        }
      ],
      "stateMutability": "view",
      "type": "function"
    },
    {
      "inputs": [],
      "name": "proposalCount",
      "outputs": [
        {
          "internalType": "uint256",
          "name": "",
          "type": "uint256"
        }
      ],
      "stateMutability": "view",
      "type": "function"
    },
    {
      "inputs": [
        {
          "internalType": "uint256",
          "name": "",
          "type": "uint256"
        }
      ],
      "name": "proposals",
      "outputs": [
        {
          "internalType": "uint256",
          "name": "id",
          "type": "uint256"
        },
        {
          "internalType": "address",
          "name": "proposer",
          "type": "address"
        },
        {
          "internalType": "string",
          "name": "description",
          "type": "string"
        },
        {
          "internalType": "uint256",
          "name": "voteCount",
          "type": "uint256"
        },
        {
          "internalType": "uint256",
          "name": "endTime",
          "type": "uint256"
        },
        {
          "internalType": "bool",
          "name": "executed",
          "type": "bool"
        }
      ],
      "stateMutability": "view",
      "type": "function"
    },
    {
      "inputs": [],
      "name": "quorumPercentage",
      "outputs": [
        {
          "internalType": "uint256",
          "name": "",
          "type": "uint256"
        }
      ],
      "stateMutability": "view",
      "type": "function"
    },
    {
      "inputs": [
        {
          "internalType": "uint256",
          "name": "_quorumPercentage",
          "type": "uint256"
        }
      ],
      "name": "updateQuorumPercentage",
      "outputs": [],
      "stateMutability": "nonpayable",
      "type": "function"
    },
    {
      "inputs": [
        {
          "internalType": "uint256",
          "name": "_votingPeriod",
          "type": "uint256"
        }
      ],
      "name": "updateVotingPeriod",
      "outputs": [],
      "stateMutability": "nonpayable",
      "type": "function"
    },
    {
      "inputs": [
        {
          "internalType": "uint256",
          "name": "_proposalId",
          "type": "uint256"
        },
        {
          "internalType": "bool",
          "name": "_support",
          "type": "bool"
        }
      ],
      "name": "vote",
      "outputs": [],
      "stateMutability": "nonpayable",
      "type": "function"
    },
    {
      "inputs": [],
      "name": "votingPeriod",
      "outputs": [
        {
          "internalType": "uint256",
          "name": "",
          "type": "uint256"
        }
      ],
      "stateMutability": "view",
      "type": "function"
    }
  ],
  "bytecode": "0x60806040523480156200001157600080fd5b5060405162001c9c38038062001c9c8339818101604052810190620000379190620001cf565b60648111156200007e576040517f08c379a00000000000000000000000000000000000000000000000000000000081526004016200007590620002b2565b60405180910390fd5b826000806101000a81548173ffffffffffffffffffffffffffffffffffffffff021916908373ffffffffffffffffffffffffffffffffffffffff160217905550816002819055508060038190555033600460006101000a81548173ffffffffffffffffffffffffffffffffffffffff021916908373ffffffffffffffffffffffffffffffffffffffff160217905550505050620002d4565b600080fd5b600073ffffffffffffffffffffffffffffffffffffffff82169050919050565b600062000148826200011b565b9050919050565b60006200015c826200013b565b9050919050565b6200016e816200014f565b81146200017a57600080fd5b50565b6000815190506200018e8162000163565b92915050565b6000819050919050565b620001a98162000194565b8114620001b557600080fd5b50565b600081519050620001c9816200019e565b92915050565b600080600060608486031215620001eb57620001ea62000116565b5b6000620001fb868287016200017d565b93505060206200020e86828701620001b8565b92505060406200022186828701620001b8565b9150509250925092565b600082825260208201905092915050565b7f51756f72756d2070657263656e746167652063616e6e6f74206578636565642060008201527f3130300000000000000000000000000000000000000000000000000000000000602082015250565b60006200029a6023836200022b565b9150620002a7826200023c565b604082019050919050565b60006020820190508181036000830152620002cd816200028b565b9050919050565b6119b880620002e46000396000f3fe608060405234801561001057600080fd5b50600436106100a95760003560e01c80638da5cb5b116100715780638da5cb5b14610157578063c9d27afe14610175578063da35c66414610191578063ef00ef43146101af578063f0f9e6b7146101cb578063f96dae0a146101e7576100a9565b8063013cf08b146100ae57806302a251a3146100e35780630d61b5191461010157806349c2a1a61461011d5780634fa76ec914610139575b600080fd5b6100c860048036038101906100c39190610cae565b610205565b6040516100da96959493929190610dd6565b60405180910390f35b6100eb6102f6565b6040516100f89190610e3e565b60405180910390f35b61011b60048036038101906101169190610cae565b6102fc565b005b61013760048036038101906101329190610f8e565b61058f565b005b610141610771565b60405161014e9190610e3e565b60405180910390f35b61015f610777565b60405161016c9190610fd7565b60405180910390f35b61018f600480360381019061018a919061101e565b61079d565b005b610199610ac2565b6040516101a69190610e3e565b60405180910390f35b6101c960048036038101906101c49190610cae565b610ac8565b005b6101e560048036038101906101e09190610cae565b610b62565b005b6101ef610c40565b6040516101fc91906110bd565b60405180910390f35b60056020528060005260406000206000915090508060000154908060010160009054906101000a900473ffffffffffffffffffffffffffffffffffffffff169080600201805461025490611107565b80601f016020809104026020016040519081016040528092919081815260200182805461028090611107565b80156102cd5780601f106102a2576101008083540402835291602001916102cd565b820191906000526020600020905b8154815290600101906020018083116102b057829003601f168201915b5050505050908060030154908060040154908060050160009054906101000a900460ff16905086565b60025481565b600460009054906101000a900473ffffffffffffffffffffffffffffffffffffffff1673ffffffffffffffffffffffffffffffffffffffff163373ffffffffffffffffffffffffffffffffffffffff161461038c576040517f08c379a0000000000000000000000000000000000000000000000000000000008152600401610383906111aa565b60405180910390fd5b600060056000838152602001908152602001600020905080600401544210156103ea576040517f08c379a00000000000000000000000000000000000000000000000000000000081526004016103e190611216565b60405180910390fd5b8060050160009054906101000a900460ff161561043c576040517f08c379a000000000000000000000000000000000000000000000000000000000815260040161043390611282565b60405180910390fd5b60008060009054906101000a900473ffffffffffffffffffffffffffffffffffffffff1673ffffffffffffffffffffffffffffffffffffffff166318160ddd6040518163ffffffff1660e01b8152600401602060405180830381865afa1580156104aa573d6000803e3d6000fd5b505050506040513d601f19601f820116820180604052508101906104ce91906112b7565b905060006064600354836104e29190611313565b6104ec9190611384565b90508083600301541015610535576040517f08c379a000000000000000000000000000000000000000000000000000000000815260040161052c90611401565b60405180910390fd5b60018360050160006101000a81548160ff0219169083151502179055507f712ae1383f79ac853f8d882153778e0260ef8f03b504e2866e0593e04d2b291f846040516105819190610e3e565b60405180910390a150505050565b60008060009054906101000a900473ffffffffffffffffffffffffffffffffffffffff1673ffffffffffffffffffffffffffffffffffffffff166370a08231336040518263ffffffff1660e01b81526004016105eb9190610fd7565b602060405180830381865afa158015610608573d6000803e3d6000fd5b505050506040513d601f19601f8201168201806040525081019061062c91906112b7565b1161066c576040517f08c379a000000000000000000000000000000000000000000000000000000000815260040161066390611493565b60405180910390fd5b6001600081548092919061067f906114b3565b9190505550600060056000600154815260200190815260200160002090506001548160000181905550338160010160006101000a81548173ffffffffffffffffffffffffffffffffffffffff021916908373ffffffffffffffffffffffffffffffffffffffff160217905550818160020190816106fc919061169d565b506002544261070b919061176f565b816004018190555060008160050160006101000a81548160ff0219169083151502179055507f7585f467599d0f008985f231af99293be388626ac16ca59505c2f8f88969cd636001543384604051610765939291906117a3565b60405180910390a15050565b60035481565b600460009054906101000a900473ffffffffffffffffffffffffffffffffffffffff1681565b60008060009054906101000a900473ffffffffffffffffffffffffffffffffffffffff1673ffffffffffffffffffffffffffffffffffffffff166370a08231336040518263ffffffff1660e01b81526004016107f99190610fd7565b602060405180830381865afa158015610816573d6000803e3d6000fd5b505050506040513d601f19601f8201168201806040525081019061083a91906112b7565b1161087a576040517f08c379a000000000000000000000000000000000000000000000000000000000815260040161087190611493565b60405180910390fd5b6000600560008481526020019081526020016000209050806004015442106108d7576040517f08c379a00000000000000000000000000000000000000000000000000000000081526004016108ce9061182d565b60405180910390fd5b8060060160003373ffffffffffffffffffffffffffffffffffffffff1673ffffffffffffffffffffffffffffffffffffffff16815260200190815260200160002060009054906101000a900460ff1615610966576040517f08c379a000000000000000000000000000000000000000000000000000000000815260040161095d90611899565b60405180910390fd5b60008060009054906101000a900473ffffffffffffffffffffffffffffffffffffffff1673ffffffffffffffffffffffffffffffffffffffff166370a08231336040518263ffffffff1660e01b81526004016109c29190610fd7565b602060405180830381865afa1580156109df573d6000803e3d6000fd5b505050506040513d601f19601f82011682018060405250810190610a0391906112b7565b90508215610a275780826003016000828254610a1f919061176f565b925050819055505b60018260060160003373ffffffffffffffffffffffffffffffffffffffff1673ffffffffffffffffffffffffffffffffffffffff16815260200190815260200160002060006101000a81548160ff0219169083151502179055507ff2913dbe661ee2acc4a046d8fbcdc792373bda34c41c6086484b5345e5785e5f843385604051610ab4939291906118b9565b60405180910390a150505050565b60015481565b600460009054906101000a900473ffffffffffffffffffffffffffffffffffffffff1673ffffffffffffffffffffffffffffffffffffffff163373ffffffffffffffffffffffffffffffffffffffff1614610b58576040517f08c379a0000000000000000000000000000000000000000000000000000000008152600401610b4f906111aa565b60405180910390fd5b8060028190555050565b600460009054906101000a900473ffffffffffffffffffffffffffffffffffffffff1673ffffffffffffffffffffffffffffffffffffffff163373ffffffffffffffffffffffffffffffffffffffff1614610bf2576040517f08c379a0000000000000000000000000000000000000000000000000000000008152600401610be9906111aa565b60405180910390fd5b6064811115610c36576040517f08c379a0000000000000000000000000000000000000000000000000000000008152600401610c2d90611962565b60405180910390fd5b8060038190555050565b60008054906101000a900473ffffffffffffffffffffffffffffffffffffffff1681565b6000604051905090565b600080fd5b600080fd5b6000819050919050565b610c8b81610c78565b8114610c9657600080fd5b50565b600081359050610ca881610c82565b92915050565b600060208284031215610cc457610cc3610c6e565b5b6000610cd284828501610c99565b91505092915050565b610ce481610c78565b82525050565b600073ffffffffffffffffffffffffffffffffffffffff82169050919050565b6000610d1582610cea565b9050919050565b610d2581610d0a565b82525050565b600081519050919050565b600082825260208201905092915050565b60005b83811015610d65578082015181840152602081019050610d4a565b60008484015250505050565b6000601f19601f8301169050919050565b6000610d8d82610d2b565b610d978185610d36565b9350610da7818560208601610d47565b610db081610d71565b840191505092915050565b60008115159050919050565b610dd081610dbb565b82525050565b600060c082019050610deb6000830189610cdb565b610df86020830188610d1c565b8181036040830152610e0a8187610d82565b9050610e196060830186610cdb565b610e266080830185610cdb565b610e3360a0830184610dc7565b979650505050505050565b6000602082019050610e536000830184610cdb565b92915050565b600080fd5b600080fd5b7f4e487b7100000000000000000000000000000000000000000000000000000000600052604160045260246000fd5b610e9b82610d71565b810181811067ffffffffffffffff82111715610eba57610eb9610e63565b5b80604052505050565b6000610ecd610c64565b9050610ed98282610e92565b919050565b600067ffffffffffffffff821115610ef957610ef8610e63565b5b610f0282610d71565b9050602081019050919050565b82818337600083830152505050565b6000610f31610f2c84610ede565b610ec3565b905082815260208101848484011115610f4d57610f4c610e5e565b5b610f58848285610f0f565b509392505050565b600082601f830112610f7557610f74610e59565b5b8135610f85848260208601610f1e565b91505092915050565b600060208284031215610fa457610fa3610c6e565b5b600082013567ffffffffffffffff811115610fc257610fc1610c73565b5b610fce84828501610f60565b91505092915050565b6000602082019050610fec6000830184610d1c565b92915050565b610ffb81610dbb565b811461100657600080fd5b50565b60008135905061101881610ff2565b92915050565b6000806040838503121561103557611034610c6e565b5b600061104385828601610c99565b925050602061105485828601611009565b9150509250929050565b6000819050919050565b600061108361107e61107984610cea565b61105e565b610cea565b9050919050565b600061109582611068565b9050919050565b60006110a78261108a565b9050919050565b6110b78161109c565b82525050565b60006020820190506110d260008301846110ae565b92915050565b7f4e487b7100000000000000000000000000000000000000000000000000000000600052602260045260246000fd5b6000600282049050600182168061111f57607f821691505b602082108103611132576111316110d8565b5b50919050565b7f4f6e6c79206f776e65722063616e20706572666f726d2074686973206163746960008201527f6f6e000000000000000000000000000000000000000000000000000000000000602082015250565b6000611194602283610d36565b915061119f82611138565b604082019050919050565b600060208201905081810360008301526111c381611187565b9050919050565b7f566f74696e6720706572696f6420686173206e6f7420656e6465640000000000600082015250565b6000611200601b83610d36565b915061120b826111ca565b602082019050919050565b6000602082019050818103600083015261122f816111f3565b9050919050565b7f50726f706f73616c20616c726561647920657865637574656400000000000000600082015250565b600061126c601983610d36565b915061127782611236565b602082019050919050565b6000602082019050818103600083015261129b8161125f565b9050919050565b6000815190506112b181610c82565b92915050565b6000602082840312156112cd576112cc610c6e565b5b60006112db848285016112a2565b91505092915050565b7f4e487b7100000000000000000000000000000000000000000000000000000000600052601160045260246000fd5b600061131e82610c78565b915061132983610c78565b925082820261133781610c78565b9150828204841483151761134e5761134d6112e4565b5b5092915050565b7f4e487b7100000000000000000000000000000000000000000000000000000000600052601260045260246000fd5b600061138f82610c78565b915061139a83610c78565b9250826113aa576113a9611355565b5b828204905092915050565b7f51756f72756d206e6f7420726561636865640000000000000000000000000000600082015250565b60006113eb601283610d36565b91506113f6826113b5565b602082019050919050565b6000602082019050818103600083015261141a816113de565b9050919050565b7f4f6e6c7920746f6b656e20686f6c646572732063616e20706572666f726d207460008201527f68697320616374696f6e00000000000000000000000000000000000000000000602082015250565b600061147d602a83610d36565b915061148882611421565b604082019050919050565b600060208201905081810360008301526114ac81611470565b9050919050565b60006114be82610c78565b91507fffffffffffffffffffffffffffffffffffffffffffffffffffffffffffffffff82036114f0576114ef6112e4565b5b600182019050919050565b60008190508160005260206000209050919050565b60006020601f8301049050919050565b600082821b905092915050565b60006008830261155d7fffffffffffffffffffffffffffffffffffffffffffffffffffffffffffffffff82611520565b6115678683611520565b95508019841693508086168417925050509392505050565b600061159a61159561159084610c78565b61105e565b610c78565b9050919050565b6000819050919050565b6115b48361157f565b6115c86115c0826115a1565b84845461152d565b825550505050565b600090565b6115dd6115d0565b6115e88184846115ab565b505050565b5b8181101561160c576116016000826115d5565b6001810190506115ee565b5050565b601f82111561165157611622816114fb565b61162b84611510565b8101602085101561163a578190505b61164e61164685611510565b8301826115ed565b50505b505050565b600082821c905092915050565b600061167460001984600802611656565b1980831691505092915050565b600061168d8383611663565b9150826002028217905092915050565b6116a682610d2b565b67ffffffffffffffff8111156116bf576116be610e63565b5b6116c98254611107565b6116d4828285611610565b600060209050601f83116001811461170757600084156116f5578287015190505b6116ff8582611681565b865550611767565b601f198416611715866114fb565b60005b8281101561173d57848901518255600182019150602085019450602081019050611718565b8683101561175a5784890151611756601f891682611663565b8355505b6001600288020188555050505b505050505050565b600061177a82610c78565b915061178583610c78565b925082820190508082111561179d5761179c6112e4565b5b92915050565b60006060820190506117b86000830186610cdb565b6117c56020830185610d1c565b81810360408301526117d78184610d82565b9050949350505050565b7f566f74696e6720706572696f642068617320656e646564000000000000000000600082015250565b6000611817601783610d36565b9150611822826117e1565b602082019050919050565b600060208201905081810360008301526118468161180a565b9050919050565b7f596f75206861766520616c726561647920766f74656400000000000000000000600082015250565b6000611883601683610d36565b915061188e8261184d565b602082019050919050565b600060208201905081810360008301526118b281611876565b9050919050565b60006060820190506118ce6000830186610cdb565b6118db6020830185610d1c565b6118e86040830184610dc7565b949350505050565b7f51756f72756d2070657263656e746167652063616e6e6f74206578636565642060008201527f3130300000000000000000000000000000000000000000000000000000000000602082015250565b600061194c602383610d36565b9150611957826118f0565b604082019050919050565b6000602082019050818103600083015261197b8161193f565b905091905056fea2646970667358221220353c2f9d459adccea088361b003535c91d654d0916aad8e969888ea401e5b67c64736f6c63430008180033",
  "linkReferences": {},
  "deployedLinkReferences": {}
}